:020000040800F2
:100000000030002091760008E1760008E1760008D3
:10001000E1760008E1760008E176000800000000C3
:10002000000000000000000000000000E176000871
:10003000E176000800000000E17600083F6000085B
:10004000E1760008E1760008E1760008E176000834
:10005000E1760008E17600082D61000833610008B0
:10006000E1760008396100083F610008E176000888
:10007000E1760008E1760008E1760008E176000804
:10008000E1760008E1760008E1760008E92500083D
:10009000D5250008E1760008E176000845610008F2
:1000A000E95B0008755B0008FD5B0008E17600086D
:1000B000995B0008AD5B000800000000E1760008D5
:1000C000E17600080000000000000000E176000872
:1000D00000000000516B0008696B0008856B000888
:1000E0006D610008E17600080000000000000000DB
:1000F0000000000000000000000000000000000000
:1001000000000000000000000000000000000000EF
:100110000000000000000000C15B0008D55B000883
:1001200000000000000000000000000000000000CF
:1001300000000000000000000000000000000000BF
:10014000E1760008E17600080000000000000000F1
:10015000000000000000000000000000000000009F
:10016000000000000000000000000000000000008F
:10017000000000000000000000000000000000007F
:0801800000000000E176000818
:10019000034613F8012B002AFBD1181A01387047C7
:1001A00001F0FF01102A2BDB10F0070F08D010F828
:1001B000013B013A8B422DD010F0070F42B3F6D12C
:1001C000F0B441EA012141EA014122F007047FF045
:1001D00000070023F0E80256083C85EA010586EA9C
:1001E000010685FA47F5A3FA87F586FA47F6A5FAD8
:1001F00087F68EB9EED1F0BC01F0FF0102F00702E4
:1002000032B110F8013B013A83EA010313B1F8D18E
:100210000020704701387047002D06BF354603386F
:10022000073815F0010F07D1013015F4807F02BFA8
:10023000013015F4C03F0130F0BC0138704700BFF9
:1002400081F0004102E000BF83F0004330B54FEA87
:1002500041044FEA430594EA050F08BF90EA020FF4
:100260001FBF54EA000C55EA020C7FEA645C7FEA87
:10027000655C00F0E2804FEA5454D4EB5555B8BFAA
:100280006D420CDD2C4480EA020281EA030382EA1B
:10029000000083EA010180EA020281EA0303362DAD
:1002A00088BF30BD11F0004F4FEA01314FF4801C80
:1002B0004CEA113102D0404261EB410113F0004F92
:1002C0004FEA03334CEA133302D0524263EB430349
:1002D00094EA050F00F0A780A4F10104D5F1200EE7
:1002E0000DDB02FA0EFC22FA05F2801841F1000142
:1002F00003FA0EF2801843FA05F359410EE0A5F116
:1003000020050EF1200E012A03FA0EFC28BF4CF046
:10031000020C43FA05F3C01851EBE37101F00045FC
:1003200007D54FF0000EDCF1000C7EEB00006EEB09
:100330000101B1F5801F1BD3B1F5001F0CD3490893
:100340005FEA30004FEA3C0C04F101044FEA4452EA
:1003500012F5800F80F09A80BCF1004F08BF5FEA71
:10036000500C50F1000041EB045141EA050130BD51
:100370005FEA4C0C404141EB0101013C28BFB1F563
:10038000801FE9D291F0000F04BF01460020B1FAAE
:1003900081F308BF2033A3F10B03B3F120020CDA81
:1003A0000C3208DD02F1140CC2F10C0201FA0CF05F
:1003B00021FA02F10CE002F11402D8BFC2F1200CC4
:1003C00001FA02F120FA0CFCDCBF41EA0C0190407A
:1003D000E41AA2BF01EB0451294330BD6FEA0404C3
:1003E0001F3C1CDA0C340EDC04F11404C4F12002AE
:1003F00020FA04F001FA02F340EA030021FA04F3C0
:1004000045EA030130BDC4F10C04C4F1200220FA16
:1004100002F001FA04F340EA0300294630BD21FA54
:1004200004F0294630BD94F0000F83F4801306BF1A
:1004300081F480110134013D4EE77FEA645C18BF0E
:100440007FEA655C29D094EA050F08BF90EA020FA5
:1004500005D054EA000C04BF1946104630BD91EA9D
:10046000030F1EBF0021002030BD5FEA545C05D1A0
:100470004000494128BF41F0004130BD14F58004DF
:100480003CBF01F5801130BD01F0004545F0FE4153
:1004900041F470014FF0000030BD7FEA645C1ABF88
:1004A000194610467FEA655C1CBF0B46024650EABF
:1004B000013406BF52EA033591EA030F41F40021EB
:1004C00030BD00BF90F0000F04BF0021704730B571
:1004D0004FF4806404F132044FF000054FF0000146
:1004E00050E700BF90F0000F04BF0021704730B507
:1004F0004FF4806404F1320410F0004548BF4042DC
:100500004FF000013EE700BF42004FEAE2014FEA30
:1005100031014FEA02701FBF12F07F4393F07F4F0B
:1005200081F06051704732F07F4208BF704793F00E
:100530007F4F04BF41F40021704730B54FF4607421
:1005400001F0004521F000411CE700BF50EA010224
:1005500008BF704730B54FF000050AE050EA0102CD
:1005600008BF704730B511F0004502D5404261EB3D
:1005700041014FF4806404F132045FEA915C3FF47E
:10058000D8AE4FF003025FEADC0C18BF03325FEA1B
:10059000DC0C18BF033202EBDC02C2F1200300FACC
:1005A00003FC20FA02F001FA03FE40EA0E0021FAF1
:1005B00002F11444BDE600BF70B54FF0FF0C4CF4DF
:1005C000E06C1CEA11541DBF1CEA135594EA0C0F91
:1005D00095EA0C0F00F0DEF82C4481EA030621EACC
:1005E0004C5123EA4C5350EA013518BF52EA033507
:1005F00041F4801143F4801338D0A0FB02CE4FF0B9
:100600000005E1FB02E506F00042E0FB03E54FF0E8
:100610000006E1FB03569CF0000F18BF4EF0010EE0
:10062000A4F1FF04B6F5007F64F5407404D25FEADC
:100630004E0E6D4146EB060642EAC62141EA55518F
:100640004FEAC52040EA5E504FEACE2EB4F1FD0CD1
:1006500088BFBCF5E06F1ED8BEF1004F08BF5FEA4F
:10066000500E50F1000041EB045170BD06F0004601
:1006700046EA010140EA020081EA0301B4EB5C04AE
:10068000C2BFD4EB0C0541EA045170BD41F48011A6
:100690004FF0000E013C00F3AB8014F1360FDEBFCB
:1006A000002001F0004170BDC4F10004203C35DAA7
:1006B0000C341BDC04F11404C4F1200500FA05F32A
:1006C00020FA04F001FA05F240EA020001F00042CB
:1006D00021F0004110EBD37021FA04F642EB060141
:1006E0005EEA430E08BF20EAD37070BDC4F10C046B
:1006F000C4F1200500FA04F320FA05F001FA04F22F
:1007000040EA020001F0004110EBD37041F100011A
:100710005EEA430E08BF20EAD37070BDC4F1200525
:1007200000FA05F24EEA020E20FA04F301FA05F28D
:1007300043EA020321FA04F001F0004121FA04F235
:1007400020EA020000EBD3705EEA430E08BF20EA05
:10075000D37070BD94F0000F0FD101F0004640003F
:1007600041EB010111F4801F08BF013CF7D041EAC1
:10077000060195F0000F18BF704703F000465200C5
:1007800043EB030313F4801F08BF013DF7D043EA96
:100790000603704794EA0C0F0CEA135518BF95EA4C
:1007A0000C0F0CD050EA410618BF52EA4306D1D1D3
:1007B00081EA030101F000414FF0000070BD50EAF2
:1007C000410606BF1046194652EA430619D094EA7C
:1007D0000C0F02D150EA013613D195EA0C0F05D166
:1007E00052EA03361CBF104619460AD181EA0301BA
:1007F00001F0004141F0FE4141F470014FF0000072
:1008000070BD41F0FE4141F4780170BD70B54FF00C
:10081000FF0C4CF4E06C1CEA11541DBF1CEA13558C
:1008200094EA0C0F95EA0C0F00F0A7F8A4EB05046E
:1008300081EA030E52EA03354FEA013100F0888065
:100840004FEA03334FF0805545EA131343EA12632E
:100850004FEA022245EA111545EA10654FEA0026E3
:100860000EF000419D4208BF964244F1FD0404F59C
:10087000407402D25B084FEA3202B61A65EB0305F8
:100880005B084FEA32024FF480104FF4002CB6EBB5
:10089000020E75EB030E22BFB61A754640EA0C0035
:1008A0005B084FEA3202B6EB020E75EB030E22BF75
:1008B000B61A754640EA5C005B084FEA3202B6EBB6
:1008C000020E75EB030E22BFB61A754640EA9C0075
:1008D0005B084FEA3202B6EB020E75EB030E22BF45
:1008E000B61A754640EADC0055EA060E18D04FEA03
:1008F000051545EA16754FEA06164FEAC30343EAA3
:1009000052734FEAC2025FEA1C1CC0D111F4801F6F
:100910000BD141EA00014FF000004FF0004CB6E768
:1009200011F4801F04BF01430020B4F1FD0C88BF07
:10093000BCF5E06F3FF6AFAEB5EB030C04BFB6EB12
:10094000020C5FEA500C50F1000041EB045170BD05
:100950000EF0004E4EEA113114EB5C04C2BFD4EB32
:100960000C0541EA045170BD41F480114FF0000EB6
:10097000013C90E645EA060E8DE60CEA135594EA32
:100980000C0F08BF95EA0C0F3FF43BAF94EA0C0F35
:100990000AD150EA01347FF434AF95EA0C0F7FF4AA
:1009A00025AF104619462CE795EA0C0F06D152EAFE
:1009B00003353FF4FDAE1046194622E750EA4106E2
:1009C00018BF52EA43067FF4C5AE50EA41047FF4F3
:1009D0000DAF52EA43057FF4EBAE12E74FF0FF3C58
:1009E00006E000BF4FF0010C02E000BF4FF0010C29
:1009F0004DF804CD4FEA410C7FEA6C5C4FEA430CA2
:100A000018BF7FEA6C5C1BD001B050EA410C0CBFF0
:100A100052EA430C91EA030F02BF90EA020F002052
:100A2000704710F1000F91EA030F58BF994208BFB9
:100A300090422CBFD8176FEAE37040F00100704776
:100A40004FEA410C7FEA6C5C02D150EA013C07D1CD
:100A50004FEA430C7FEA6C5CD6D152EA033CD3D018
:100A60005DF8040B704700BF8446104662468C4612
:100A70001946634600E000BF01B5FFF7B7FF002845
:100A800048BF10F1000F01BD4DF808EDFFF7F4FF6E
:100A90000CBF012000205DF808FB00BF4DF808EDF9
:100AA000FFF7EAFF34BF012000205DF808FB00BF1C
:100AB0004DF808EDFFF7E0FF94BF012000205DF83E
:100AC00008FB00BF4DF808EDFFF7CEFF94BF0120F3
:100AD00000205DF808FB00BF4DF808EDFFF7C4FFEC
:100AE00034BF012000205DF808FB00BF4FEA41023F
:100AF00012F5001215D211D56FF47873B3EB625270
:100B000012D94FEAC12343F0004343EA505311F096
:100B1000004F23FA02F018BF404270474FF0000028
:100B2000704750EA013005D111F0004008BF6FF066
:100B3000004070474FF00000704700BF4A0011D2DC
:100B400012F5001211D20DD56FF47873B3EB625227
:100B50000ED44FEAC12343F0004343EA505323FA33
:100B600002F070474FF00000704750EA013002D1A8
:100B70004FF0FF3070474FF0000070474FEA4102DE
:100B8000B2F1E04324BFB3F5001CDCF1FE5C0DD9EB
:100B900001F0004C4FEAC0024CEA5070B2F1004F35
:100BA00040EB830008BF20F00100704711F0804F38
:100BB00021D113F13872BCBF01F00040704741F4FD
:100BC00080114FEA5252C2F11802C2F1200C10FA01
:100BD0000CF320FA02F018BF40F001004FEAC123E5
:100BE0004FEAD32303FA0CFC40EA0C0023FA02F389
:100BF0004FEA4303CCE77FEA625307D150EA01335F
:100C00001EBF4FF0FE4040F44000704701F000402E
:100C100040F0FE4040F40000704700BF10B5054CA6
:100C2000237833B9044B13B10448AFF30080012398
:100C3000237010BDF0000020000000009882000822
:100C400008B5034B1BB103490348AFF3008008BD4F
:100C500000000000F400002098820008F0B5424B2C
:100C6000424D5A6942F4003285B05A615A6902F421
:100C700000320092009A5A6942F480225A615A69FD
:100C800002F480220192019A9A6942F400629A6108
:100C90009A6902F400620292029ADA6942F0020250
:100CA000DA61DB6903F002030393039B304B0024FA
:100CB0009F2740F2E7362846C5E90037C5E90246D6
:100CC0002C61AC6103F0B4FD2A4A2B4B1461104631
:100CD000C2E90037C2E90246946103F0A9FD274B3F
:100CE00060274FF4FA76224619462846C3E9016484
:100CF000C3E904441F609C6103F006FE1F4B1D48BE
:100D00009C6022461946C3E900761C6103F0FCFD95
:100D10001B4A4FF4807302261360032706231146F3
:100D20004FF09040C2E90373C2E9016402F04AFE49
:100D3000134A1448166110231146C2E90036C2E96D
:100D4000024702F03FFE2A68536C43F400432146F9
:100D50005364284603F0DAFE0648214605B0BDE894
:100D6000F04003F0D3BE00BF00100240F8010020A5
:100D7000002C0140AC010020000400409001002044
:100D80004402002000040048064B6428DA681B680F
:100D900028BF642002FB00006422B0FBF2F058631D
:100DA000704700BFF8010020064B6428DA681B6812
:100DB00028BF642002FB00006422B0FBF2F05863FD
:100DC000704700BFAC01002008B5084B1B780146F6
:100DD00033B1FFF7E9FF6420BDE80840FFF7D4BF57
:100DE0001846FFF7E1FF0846F6E700BF1C010020A8
:100DF000044B02221960DA729881002202481946D7
:100E000001F0A2B9340000202001002070B586B0A6
:100E100006460D4601F02EFC0A223146841905448F
:100E2000684606F0DEFA694603A806F0BFFA2449D0
:100E300003A806F027FB0146224806F033F903A871
:100E400006F051FA684606F04EFA012202214FF0F0
:100E5000904002F07BFE1C480022012102F076FE49
:100E6000002601F007FCA0421BD326B90122164838
:100E7000114602F06BFE002202214FF0904002F07A
:100E800065FE124B1B78CBB10F480022082102F0FF
:100E90005DFE40F2A311012006B0BDE87040FFF7EF
:100EA000A7BF002EDDD101F0E5FBA842D9D3012276
:100EB0000548114602F04AFE0126D2E706B070BD91
:100EC000C88200089C05002000040048240000207F
:100ED00070B52DED028BB34CB34894B0214601F0B0
:100EE0008FF9002800F0A680627DB04904A806F0C2
:100EF000A9FDAF4804A906F0DAF8E379002B58D130
:100F0000AC49AB4806F0D3F8E37A2268AA4904A8B2
:100F100006F098FDA64804A906F0C9F8257A002D28
:100F200040F02E82A549A248A54E06F0C0F8E37A0B
:100F30009D4240DB9E4806F0C1F8E6683046FFF768
:100F4000C1FAA04B0022FFF761FCFFF717FE9E4994
:100F500008EE100A964806F0AAF80A22314694488C
:100F600006F0E8F89949924806F0A1F89048032164
:100F7000B0EE480A06F06EF92568B5F5D27F26D1A5
:100F8000E37A032B3ED99249894806F090F8FCEEAB
:100F9000C87ACDED037A9DF80C00FFF715FF8D4B55
:100FA000002200201A6000F091FE2946BDF80C00D6
:100FB0004FE08949A5E716F8012F884904A806F0F3
:100FC00041FD7B4804A906F072F80135AFE7B5F59D
:100FD000D07F41D1E37A032B14D981497D4C7448E9
:100FE00006F065F8B0EE480A84ED008A00F0A4FE31
:100FF000D4ED007AF5EE407AF1EE10FA1ED0012021
:1010000000F064FE012210214FF0904002F09EFD9E
:10101000744B01221A7018EE100AFFF775FA324667
:10102000CDE90001704904A806F00CFD04A9604850
:1010300006F060F814B0BDEC028B70BD002000F02B
:1010400045FE6A480821002202F080FD40F2A3110B
:101050000120FFF7CDFED5E740F2A1139D420AD152
:10106000E37A032BCED96249514806F020F8614B50
:1010700083ED008AC6E740F2AF139D4208D1E37AC0
:10108000032BBFD95C494A4806F011F85B4BEFE7E8
:10109000B5F5D37F2BD1E37A032BB3D94C49444820
:1010A00006F005F8F6EE007AB4EEE78AF1EE10FAF3
:1010B00012D553493E4805F0FAFF0020FFF784FEA1
:1010C0004FF4D2710020FFF793FE002000F0FEFDE8
:1010D000404B00221A6095E74A49354805F0E7FF82
:1010E0006420FFF771FE4FF4D2716320EBE740F20A
:1010F000A3139D422BD1E37A032B83D942492C4879
:1011000005F0D5FFF6EE007AB4EEE78AF1EE10FABC
:1011100015D536480821002202F018FD2946012085
:10112000FFF766FE002000F0D1FD2A4BFCEEC87AE6
:1011300000221A6040F2A311CDED037A36E72B4866
:101140000821012202F002FD29460020E8E7B5F55A
:10115000D17F75D1E37A032B7FF654AF2B49144826
:1011600005F0A5FFF6EE007AB4EEE78AF1EE10FA8C
:101170000AD523490E4805F09AFF002202214FF0BC
:10118000904002F0E3FC3DE71A4C1E49084805F088
:101190008EFFD4ED007AF5EE407AF1EE10FA37D1F9
:1011A0000122EBE70400002020010020CB82000890
:1011B0009C050020D7820008F1820008FD8200080B
:1011C0000F00002000408F400983000819830008A9
:1011D0002583000818010020E4820008038300082A
:1011E0002E83000814010020C0830008000400487A
:1011F00041830008100100205383000800000020F4
:10120000688300086D830008718300087B830008F1
:101210005C4B1B7813B1002000F058FD5A4BD3ED06
:10122000007AFCEEE77ACDED037AD4ED007A9DF8F2
:101230000C10FCEEE77A17EE900AFFF7E7FDE1E607
:1012400040F2A7139D421CD1E37A032B7FF6DAAE5E
:101250004E494F4805F02BFFF6EE007AB4EEE78AD0
:10126000F1EE10FA07D54B49494805F020FF01225D
:101270004948012185E74949454805F018FF002202
:10128000F6E740F2AB139D4217D1E37A032B7FF6CA
:10129000B9AE43493E4805F00AFF424B83ED008A50
:1012A000414B93ED001A414BD3ED000AF3EE0E1AB9
:1012B000B0EE480A00F08CFCA4E6B5F5D67F15D157
:1012C000E37A032B7FF69EAE3949314805F0EFFEF5
:1012D000364B83ED008A344B93ED001AF3EE0E1A71
:1012E000F0EE480A2F4B93ED000AE3E740F2AD130E
:1012F0009D4212D1E37A032B7FF684AE2D49244818
:1013000005F0D5FE284B83ED008A284BF3EE0E1A2C
:10131000D3ED000AB0EE481AE4E7B5F5D87F13D153
:10132000E37A032B7FF66EAE2349194805F0BFFE22
:10133000F6EE007AB4EEE78AF1EE10FA114B4CBFEC
:10134000002201221A705DE640F2B1139D4209D1DC
:10135000E37A032B7FF656AE18490D4805F0A7FE39
:10136000174B85E6B5F5D97F7FF44CAEE37A032BB6
:101370007FF648AE1349064805F099FE124B77E612
:10138000124954E624000020000000208483000855
:101390009C05002068830008000400486D83000855
:1013A0008E83000830000020280000202C00002040
:1013B00093830008988300089D830008AC8300088D
:1013C00020000020B68300081C000020CB8300080A
:1013D0002DE9F3414FF4967006F0CCF901F02CF9A9
:1013E000642006F0C7F906228448854F4FF4E131A6
:1013F00005F0E8FD8349814805F07CFE8248002124
:1014000000F0E6FF8149804800F0CEFF80497B482C
:1014100005F070FE7F4B5A6942F400325A615A69F6
:1014200002F400320092009A5A6942F480225A6112
:101430005B6903F480230193019BFFF70FFC0020FD
:10144000FFF7A2FC0020FFF7AFFC4FF47A7000F02A
:101450006DFB9FED711ADFED710A9FED710AF3EEDE
:101460000E1A00F0B5FB9FED6F0A00F065FC00203E
:101470000024012500F02AFC382339464FF0904023
:1014800002263B60C7E90154FC6002F09BFA394632
:101490006548C7E90065C7E9024402F093FA394696
:1014A0004FF09040C7E90065C7E9024402F08AFAAC
:1014B000224631464FF0904002F048FB504B5A48CC
:1014C00008271946C3E90075C3E9024402F07AFA15
:1014D00022463946544802F039FB494B52481946D6
:1014E000C3E90055C3E9024402F06CFA2A462946D2
:1014F0004D4802F02BFB0C2006F006F9404A8023F1
:1015000011464FF09040C2E90034946002F05AFA5C
:101510003B4A454894604FF020081146C2E90084D8
:1015200002F050FA364A4FF4007311464FF09040E3
:10153000C2E90034946002F045FA314A4023114672
:101540004FF09040C2E90034956002F03BFA2A4621
:1015500041464FF0904002F0F9FA642001F090F813
:10156000224641464FF0904002F0F0FA642001F02C
:1015700087F82A4610214FF0904002F0E7FA6420E5
:1015800001F07EF8224610214FF0904002F0DEFA82
:10159000642001F075F82A4639464FF0904002F079
:1015A000D5FA642001F06CF8224639464FF090409D
:1015B00002F0CCFA642001F063F82A4631461A485A
:1015C00002F0C4FA322001F05BF822463146164898
:1015D00002F0BCFA322001F053F82A463146124894
:1015E00002F0B4FA322001F04BF80F48224631469F
:1015F00002B0BDE8F04102F0A9BA00BF9C0500208E
:1016000044020020E68300082001002020A10700FA
:10161000F383000800100240CDCC4C3D0000204276
:10162000000070429A999140000400482DE9F84367
:1016300080214FF0904002F083FA20213E48DFF8ED
:10164000188102F07DFA4FF40071061E04464FF037
:10165000904018BF012602F073FA40214FF09040ED
:1016600002F06EFA051E14BF4FF001094FF0000999
:1016700018D198F80030ABB1304F2F483A78082194
:1016800082F001023A7002F061FA2D492D484D7343
:1016900040F2A3130B600223CB722A463B780B73F4
:1016A00000F052FD284F88F800902CBB3B781BB30C
:1016B000DFF88880204888F800402246082102F0A0
:1016C00045FA1F491F484C7340F2A3130B600225D3
:1016D00098F800300B732246CD7200F035FD0122E0
:1016E0002946154802F032FA322000F0C9FF1248AC
:1016F0002246294602F02AFA3E7006F039F8134EC7
:10170000134D6423B0FBF3F000F0010310F001046B
:1017100033700BD12B784BB10E4F01232246102191
:101720004FF090403B7002F011FA3C7033782B7010
:10173000BDE8F843FFF7CCBB000400480D010020D2
:1017400034000020200100200C01002016010020A0
:1017500015010020140100200E01002007B5102300
:10176000044900930022044800F076FB03B05DF8C2
:1017700004FB00BF0064004020010020014800F08D
:10178000C3BE00BF200100202DE9F043C04D2DED68
:10179000028B2B68013383B005242B600026C02008
:1017A00005F0D0FF013C0644F9D10523B6FBF3F662
:1017B000B3B207EE903A9FEDB77AF8EEE77A87EE8C
:1017C000878ADFEDB57A28EE278AF6EE007AB4EE46
:1017D000E78AF1EE10FA50D8012208214FF090402C
:1017E00002F0B4F9224620214FF0904002F0AEF909
:1017F0002B68AA4C642293FBF2F102FB11333BBB32
:10180000DFF8008340F2A511B0B2FFF7F1FAD4ED92
:10181000007A98ED007AF4EE477AF1EE10FA08D0EB
:10182000FCEEE77A4FF4D27117EE903A98B2FFF7D8
:10183000DFFA9B4F9B4E38783378834203D040F2D7
:10184000A311FFF7D5FA2368C8F800303B7833704E
:10185000954B1B783BB1954BD3ED007AF5EE407A72
:10186000F1EE10FA1DD10020FFF7AEFA002323603D
:1018700003B0BDEC028BBDE8F08318EE100AFEF752
:1018800043FE7DA3D3E90023FFF71CF90028AFD066
:10189000012220214FF0904002F058F92246082101
:1018A000A2E7834B9FED836A93ED007A77EEC87AC7
:1018B00083ED017AC3ED007A7F4BD3ED006A66EECB
:1018C000866A9FED7E6A37EEC77AE7EE866AC7EED4
:1018D000065A9FED7B7AF4EEC76AF1EE10FA08DC47
:1018E0009FED787AF4EEC76AF1EE10FA58BFB0EEC9
:1018F000667A83ED007A744B744AD3ED006A744BB8
:101900007449754826EE877AD3ED006A734BA7EECB
:10191000A67AD3ED006A724BB2EE026AA5EEA67A01
:10192000C8EE066AD3ED005A6E4BB7EE006AA5EE1C
:10193000A66AD3ED006A6C4BE7EE066A93ED007A77
:1019400092ED006A694A76EEC76AA6EE867AF3EEF1
:101950000E6AB4EEE67A83ED007A654B84ED007A88
:10196000F1EE10FA48BF9FED637AD3ED006A0B6881
:1019700048BF84ED007AF4EEC76A02EB8302F1EE11
:1019800010FA90ED007A48BFC4ED006AD2ED006A0B
:10199000C2ED007A37EE667A642237EE877A013339
:1019A00080ED007A93FBF2F002FB10330B6052499A
:1019B000524A087818B9002B31D101230B70142337
:1019C0002EE02FA3D3E9002340464946FFF784F8D1
:1019D00090B933780BB100232360D4ED007AFCEE8C
:1019E000E77ACDED017A9DF8040003B0BDEC028BDF
:1019F000BDE8F043FFF7E8B92D684FF47A7395FB23
:101A0000F3F203FB1255002DE3D13D4808210122DA
:101A100002F09CF8357040F2A311284626E007DD5D
:101A200007EE903AF8EEE77AC7EE276AC2ED006A51
:101A300010681B4EFEF768FD13A3D3E90023804610
:101A40008946FFF72BF80028BBD02A684FF47A7339
:101A500092FBF3F103FB1122002ABAD12848082196
:101A600002F074F80120307040F2A311FFF7C0F9C2
:101A7000AFE700BFAFF30080333333333333E33F9B
:101A80009A9999999999C93F9A9999999999A9BFB8
:101A90002004002000F07F450AD71F4104040020E5
:101AA00000040020F8030020180400201C0400207B
:101AB000100400206666663F0C0400206F12833A13
:101AC00000004842000048C2580000201C000020CE
:101AD0005C0000206402002060020020540000200E
:101AE0002000002050000020080400206802002090
:101AF0004C000020000000005C0200205802002082
:101B000000040048FC030020012A02D101600020EB
:101B10007047022A05D0032AF9D0002AF7D10260C3
:101B2000F5E70B680360F2E70368184770B50446F1
:101B300088B0B42004F00AF91E4E05464FF08041EB
:101B400004F06CF8022221462846356003F0ECFFD1
:101B500000230593184B0493184B07933068184BD8
:101B6000069304A904F0A1F8069B1BB104A9032263
:101B700008469847306803F0E2FE124904A805F0D1
:101B8000F4FB0A22214601A805F02BFC01A904A8B8
:101B900005F06CFC0C4905F075FC01460B4805F09E
:101BA0009FFA01A805F09FFB04A805F09CFB08B074
:101BB00070BD00BF2404002089170008291B0008FD
:101BC000091B0008FC8300081D8400089C050020F8
:101BD00010B52DED048B334B334990B083ED000AE3
:101BE000324BC3ED000A324B83ED001A314BF0EE5D
:101BF000409A04A8B0EE609AF0EE418AB0EE618A95
:101C0000C3ED001A05F0B1FBB0EE690A012101A88D
:101C100005F0F9FB01A904A805F028FC264905F008
:101C200031FCB0EE490A0446012107A805F0EBFBA0
:101C300007A9204605F01AFC204905F023FCB0EE68
:101C4000680A044603210AA805F0DDFB0AA920461C
:101C500005F00CFC1A4905F015FCB0EE480A0446E4
:101C600001210DA805F0CFFB0DA9204605F0FEFBD4
:101C7000144905F007FC0146134805F031FA0DA898
:101C800005F031FB0AA805F02EFB07A805F02BFB99
:101C900001A805F028FB04A805F025FB10B0BDEC59
:101CA000048B10BD5C000020308400085800002028
:101CB0005400002050000020398400083E840008B1
:101CC000438400084C8400089C05002010B5134B89
:101CD00086B00446187028B9114A00231360536077
:101CE000104A1360104903A805F03FFB0F4B104941
:101CF0006846002C08BF194605F037FB694603A863
:101D000005F0B4FB01460B4805F0EAF9684605F01A
:101D1000EAFA03A805F0E7FA06B010BD180400209F
:101D2000100400200C0400205A8400084E8400088F
:101D3000528400089C05002000B52DED028BB5EE05
:101D4000C00AF1EE10FA87B02BD4B2EE048AB4EEDA
:101D5000C80AF1EE10FAD8BFB0EE408A124B134910
:101D600083ED008A03A805F000FBB0EE480A0221CB
:101D7000684605F048FB694603A805F077FB0C4967
:101D800005F080FB01460B4805F0AAF9684605F00E
:101D9000AAFA03A805F0A7FA07B0BDEC028B5DF81C
:101DA00004FB9FED058AD9E71C0400205F8400082E
:101DB0006E8400089C05002000000000064B99423C
:101DC00000D0FEE7054B1A6802B1FEE741644030DF
:101DD00018600120704700BF006400402804002004
:101DE000436C7BB1084A934200D0FEE7074A116872
:101DF00000F14003994204D10023436413600120A1
:101E00007047FEE718467047006400402804002031
:101E1000436C53B1064A934200D0FEE7054B1B6862
:101E200040301B1A5842584170471846704700BF4F
:101E3000006400402804002000234364836280F88B
:101E40002C30C3644FF08073C3654FF4807300641B
:101E5000A0F860307047000010B54FF0FF340383E6
:101E6000BDF808304383C0E90C4400230F24C0E9C7
:101E70000733C0E90E4380F824300B4B994208D158
:101E8000012A09D0022A0BD01AB90B2303630C23B1
:101E90004363FFF7D1FF10BD182303631923F7E74E
:101EA000302303633123F3E70064004038B50A4967
:101EB0000546006B04F09CFA08490446686B04F080
:101EC00097FA844206D008B1002403E014B14FF021
:101ED000FF336B63204638BD04860008EC8500089C
:101EE00010B500F144040221204601F020FB2046F9
:101EF000012101F01CFB2046BDE8104001F01CBA96
:101F0000406C30B500B301F01F040121A140D0F8AE
:101F1000004244F00104C0F80042D0F81C5225EA07
:101F20000105CC43C0F81C527BB1012B13D022B168
:101F3000D0F81C320B43C0F81C32D0F8003223F02A
:101F40000103C0F80032012030BDD0F81432234024
:101F5000C0F81432EBE7D0F814320B43F8E730B591
:101F6000456C8BB09DF8404015B900200BB030BDDA
:101F70000E9D06950F9D05910795BCB1012C15D0BE
:101F80009DF84440089494B2120C00920D299AB224
:101F90004FEA1343019403920293E6D86946443012
:101FA00001F003F9B0FA80F04009DFE70494E7E7B5
:101FB00030B590F82C3085B00546A3B9012480F8DF
:101FC0002C401A46CDE90234CDE900341946FFF71A
:101FD000C6FF0023214601341A462846E4B2FFF723
:101FE0008FFF0E2CF5D105B030BD38B500F144049B
:101FF0000546204601F05DF82846FFF7D9FF204648
:1020000001F041F90221204601F080FA2046012129
:10201000BDE8384001F07ABAF8B5C56904465DBB41
:10202000006A68B9668B1820704303F091FE01279F
:1020300003460821013E1A4603F118031DD220620F
:102040006061E069638B23820025A581E58168B921
:10205000268B1820704303F07BFE012703460821DE
:10206000013E1A4603F1180320D2E061238BA380BE
:1020700000232380A0606380F8BD43F8185C23F838
:10208000145C03F8125C03F8115C03F8105C03F8AD
:102090000F5C03F80E5C03F80D1CC2E9035503F84E
:1020A000045C03F8037C03F8025CC3E743F8185CA4
:1020B00023F8145C03F8125C03F8115C03F8105C5D
:1020C00003F80F5C03F80E5C03F80D1CC2E903551E
:1020D00003F8045C03F8037C03F8025CC0E738B53E
:1020E000002585810446C5814561006A08B103F079
:1020F00031FEE069258025626580A56008B103F0A6
:1021000029FE0023E36138BD0B8888889BB2013328
:1021100030B5B3FBF0F400FB143348889BB280B2B7
:1021200098420FD00C888868A4B2182505FB0400DB
:10213000541952F8045B40F8045BA242F9D10B80B9
:10214000012030BD0020FCE7F0B50646406C89B0A8
:102150000D46174638B3436923F001034361CB7939
:102160000A6813B30392042304932B7AFBB102236E
:10217000059300230693002401AB05F10C0202A98C
:1021800006F144008DF81C4001F0EAF890B19FB9C7
:102190002A4606F10C013046FFF7B6FF726C536910
:1021A00043F00103536109B0F0BD0292DCE70593EF
:1021B000EB7ADFE70120F1E72046EFE708884B885C
:1021C00080B29BB2984210B518D048888B6880B214
:1021D000182404FB0033181953F8044B42F8044B3D
:1021E0008342F9D14B888A889BB20133B3FBF2F06A
:1021F00002FB10339BB24B80012010BD0020FCE796
:10220000436C10B50A46044663B1596921F00201D6
:1022100059610146FFF7D2FF626C536943F0020334
:10222000536110BD1846FCE730B5042A9DF80C50E8
:102230008164144628BF0424AC4228BF2C46042CD9
:102240001CBF0D4D55F82440A2F1020508BF4FF008
:1022500040740E2D98BF1204A3F1020594BFA2F59D
:1022600080320022062D9ABF1B05A3F580130023A0
:10227000C0E91442836530BDC88400082DE9F743E6
:1022800005460C4601F082FF3D4B98422CD13D4B58
:102290009C421FD03C4B9C421ED03C4B9C421DD0CC
:1022A0003B4B9C421CD03B4B9C421BD03A4B9C422C
:1022B0003DD1052339490C2202FB0311042300936D
:1022C0000B7ACA7989882846FFF7AEFF012003B050
:1022D000BDE8F0830023EDE70123EBE70223E9E704
:1022E0000323E7E70423E5E72D4B98421FD1254B55
:1022F0009C4214D0254B9C4213D0254B9C4212D0BB
:10230000244B9C4211D0244B9C4210D104232549DC
:102310000C2202FB0311042300930223D1E70023C4
:10232000F5E70123F3E70223F1E70323EFE70121B8
:102330004FF0160840F2014EB0FBF1FCBCFBF8F385
:102340009C4217D30126F3B203EB4302013AD2B207
:10235000B700BCFBF7F94C4503D10420009089B2CB
:10236000B1E70132D2B2112A07F10107F1D10136EA
:10237000062EE8D101317145DED10020A7E700BF6C
:10238000006CDC0240420F0000350C0020A1070069
:1023900090D0030048E80100A086010014850008E1
:1023A00040A5AE02D884000810B581620446FFF74C
:1023B0002FFD58B12046FFF761FF38B12046FFF7E7
:1023C0008FFD2046BDE81040FFF70FBE10BD000096
:1023D00090F8243073B504460D46002B50D1FFF71A
:1023E00065FD014600284BD02046FFF7E7FC01239E
:1023F00084F824302046FFF70FFE2249206B04F0BA
:1024000019F800F4FE4141F01201206B03F04AFF7D
:10241000666B731C07D01C49304604F00BF801466C
:10242000304603F03FFF626C184B9A421CD103F513
:10243000D6331420DA6942F00072DA61DB6903F006
:102440000073D4E90E120193019B01F0A1F914204D
:1024500001F0D0F9D4E90E12132001F099F91320FC
:1024600001F0C8F90123E366A16A84F85F500023F4
:10247000204684F82C3002B0BDE87040FFF794BFCE
:1024800002B070BD04860008EC85000800640040BE
:1024900008B5426C054B9A4207D1132001F0B8F9F8
:1024A000BDE80840142001F0B3B908BD0064004045
:1024B00010B50446FFF7ACFC08B32046FFF710FD4B
:1024C0002046FFF7E5FF0E4B626C206B9A4201BF7E
:1024D0000C4AD36923F00073D361002103F0E2FEBC
:1024E000606B431C02D0102103F0DCFE2046FFF796
:1024F000F6FD2046FFF774FC002384F8243010BD5D
:10250000006400400010024010B50446FFF7D0FF01
:10251000204610BD70B50C4D50F8046C0FCD86B040
:102520006C460FC495E803006A4684E8030006F190
:102530000C013046FFF742FE20B1012269463046C9
:10254000FFF702FE06B070BDB0820008FFF7E2BFE1
:10255000FFF7E0BFF0B51E4D50F8047C06460FCDE6
:102560008FB001AC0FC495E8030084E8030004AB0E
:1025700007AA0021304600F03EFFF0B9099BDDE9D3
:10258000071213BB0A468DF80B300A9B0192003BE1
:1025900018BF01238DF80C300D9B8DF818300C9B63
:1025A000ADF808300B9B8DF80F3001AAB36A8DF897
:1025B000193039463846FFF7A7FD0021304600F0B4
:1025C00096FF0028D3D10FB0F0BD0123DBE700BF99
:1025D000B0820008034B186810B1043000F0C2BF8D
:1025E000704700BF28040020FFF7F4BF70470000C9
:1025F00038B50E4B1A784FF47A73B3FBF2F30C4AEA
:1026000005461068B0FBF3F001F014F9044658B920
:102610000F2D09D8024629464FF0FF3001F0B8F8D7
:10262000044B20461D6038BD0120FCE760000020FF
:102630009000002064000020074A08B5136843F0AA
:1026400010031360032001F091F80020FFF7D0FF82
:10265000FFF7CCFF002008BD00200240034A044BD6
:1026600011681B780B441360704700BF2C040020D6
:1026700060000020014B1868704700BF2C04002048
:1026800038B50446FFF7F6FF631C1CBF054B1B78EB
:10269000054618BFE418FFF7EDFF431BA342FAD32A
:1026A00038BD00BF60000020006C704738B503687B
:1026B0009A6802F00302012A044601D0002038BDC6
:1026C0001A68D107FAD59A6802F00D02012A15D1CD
:1026D0009A6842F002029A6003221A60FFF7CAFF6A
:1026E000054623689B68DB07E8D5FFF7C3FF401B5F
:1026F0000228F6D923689B68DA07F2D5236C43F0E9
:1027000010032364636C43F0010363640120D6E784
:1027100003689A6812F00C0F70B5044601D10020CE
:1027200070BDDA68900125D5208B40F201129042ED
:1027300020D1224A1968490610D540221A600C217E
:102740009A68520706D59A6896075EBF9A6842F063
:1027500010029A600C292ED06C210DE0013AE9D1CB
:10276000236C43F010032364636C43F00103636440
:102770000120D5E76029E3D19A68100706D59A6849
:1027800092075EBF9A6842F020029A6060290CBFEF
:1027900008250C25FFF76EFF064623689B682B4231
:1027A000BDD0FFF767FF801B0B28F6D923689B6815
:1027B0002B42F2D0D4E70425ECE700BF01940900D6
:1027C00038B503689A6802F00302012A044604D16E
:1027D0001A68D10701D5002038BD9968104A114206
:1027E00009D0236C43F010032364636C43F00103AE
:1027F00063640120F0E79A6842F001029A60FFF7F3
:1028000039FF054623681B68DB07E4D4FFF732FF76
:10281000401B0228F6D923681B68DA07F2D4E0E7E8
:102820003F00008037B5002301930446002800F0E4
:10283000E080026CD20600F1C980036C002B00F02E
:102840008F80002023689A68D10002D59B689A0087
:102850000AD5236C23F0120343F010032364636C46
:1028600043F0010363640120236CDB0600F1BB80AD
:10287000002840F0B88023689A68550700F1B380BB
:10288000226C22F4817242F00202226499685A4A50
:10289000B3F1A04F01F0030118BF4FF0A04201298E
:1028A00002D11968C9070ED4916801F0030101290A
:1028B00002D11268D20706D4504965688A6822F4AA
:1028C00040322A438A60D4E902120A43616B657E72
:1028D000013918BF012142EA453242EA013294F837
:1028E0002010012907D1002D72D1616A013942EA15
:1028F000414141F48032A16A01291EBFE56A2943A2
:102900000A43996811F00C0F0CD1D96821F4804169
:1029100021F00201D96094F83010257E490041EA87
:1029200085310A43DD683649294011432269D9605F
:10293000012A05BF196BE2691A6B02F1FF3206BF6B
:1029400021F00F010A4322F00F021A63002363648F
:10295000236C23F0030343F00103236403B030BD71
:10296000C0E91233436480F83C3003F061FA236815
:102970009B68DB003FF565AF2046FFF797FE226CB2
:10298000D5063FF55FAF00287FF45CAF236C22686B
:1029900023F4885323F0020343F002032364936873
:1029A00023F040539360936843F080539360154B3A
:1029B000154A1B68B3FBF2F30A2253430193019BB0
:1029C000002B3FF43EAF019B013BF7E718464BE776
:1029D000216C21F0220141F020012164616C41F061
:1029E0000101616487E7236C23F0120343F01003B5
:1029F00023640120B2E700BF000100500003005033
:102A000007C0F0FF9000002040420F0038B5044698
:102A1000002800F09980036C43F0020303646C21EA
:102A2000FFF776FE28B10125002384F83C302846C4
:102A300038BD2268D36843F40013D3602046FFF703
:102A400035FE05460028EED10123236423685A6829
:102A50006FF30A025A6040F2FF721A609A6822F01D
:102A6000E0429A609A6842F000529A60D968374A08
:102A70000A40DA605A696FF3DD025A619A6902F01E
:102A800078429A611A6A02F0F0221A625A6A02F0D7
:102A9000FF225A629A6A02F0FF229A62196B2C4A4C
:102AA0000A401A635A6B2B490A405A639A6B0A40D0
:102AB0009A63DA6B22F4FB6222F00702DA63196E82
:102AC000254A11401966596E11405966996E114098
:102AD0009966D96E0A40DA66D3F8A0201F490A40E9
:102AE000C3F8A020D3F8A4200A40C3F8A420D3F848
:102AF000B0200A40C3F8B020D3F8B42022F07F12EF
:102B0000C3F8B4209968164AB3F1A04F01F003014D
:102B100018BF4FF0A042012902D11B68D9070CD47D
:102B2000936803F00303012B02D11368DB0704D47D
:102B30000C4A0D4B91680B409360204603F0BCF9A2
:102B40000023636423646FE7012570E7048000803D
:102B5000300882E0200882E000F0FF030100F8FF67
:102B60000001005000030050E0103CFE38B503683F
:102B70009D6815F00405044658D190F83C30012BAF
:102B800054D0012380F83C30FFF71AFE00284AD1C8
:102B9000236C23F4706323F0010343F480732364F4
:102BA000234B9A68236812F01F0F226C02D0B3F1F6
:102BB000A04F2ED122F480122264DA68950141BF21
:102BC000226C22F4405242F480522264226C12F4AD
:102BD00080521CBF626C22F006026264002284F8FC
:102BE0003C201C221A60124A9168C9060CD09168D8
:102BF00001F01F01052907D0926802F01F02092A7F
:102C000002D0B3F1A04F03D19A6842F004029A6057
:102C100038BD42F480122264064A9342D6D14FF066
:102C2000A042D268CAE784F83C50F1E70220EFE7FF
:102C3000000300500001005010B590F83C30012B0B
:102C4000044619D0012380F83C306C21FFF760FD69
:102C500020B10120002384F83C3010BD2046FFF74E
:102C600025FD0028F5D1236C23F4885323F00103BC
:102C700043F001032364EDE70220EEE72DE9F04184
:102C80004569082D04460E4617D0354B9A68D00684
:102C90000ED12368DB6813F0010F0DD0236C43F0D5
:102CA00020032364002384F83C300120BDE8F08138
:102CB0009B6813F4404FF0E70C25294B9A68236872
:102CC000D10604D0B3F1A04F18BF4FF0A043DF6886
:102CD000FFF7D0FC804623681A682A4220D0226C75
:102CE00042F400722264DA6807F4005102F4406290
:102CF0000A4311D11A6810070ED59A6812F0040F12
:102D0000226C23D122F480722264226CD10403D479
:102D1000226C42F0010222647A041FD50020C5E72C
:102D2000721CD9D05EB923681B682B40D3D1226CAA
:102D300084F83C3042F0040222640320B6E7FFF737
:102D400099FCA0EB0800B042EDD8C4E742F02002A5
:102D50002264626C42F001026264DDE71D60DDE71F
:102D6000000300500368186C7047F8B590F83C30C9
:102D7000012B04460E463CD0012780F83C70FFF73B
:102D800095FC0546E0B9236827649A6822F08042E2
:102D90009A60BE4202BF9A6842F080429A609A6886
:102DA00042F000429A60FFF765FC064623689B6884
:102DB000002B09DB236C23F0030343F0010323649E
:102DC000002384F83C3012E0FFF754FC801B0A28F3
:102DD000ECD923689B68002BE8DA236C23F01203FC
:102DE00043F010032364002384F83C300125284677
:102DF000F8BD0225FBE70000F7B50023019390F82A
:102E00003C30012B054600F04681012380F83C3020
:102E100003689A68560700F1388148680A680624F2
:102E2000042800FB04F42AD8186B1F26A64020EAC9
:102E3000060002FA04F420431863986810F00C0F9F
:102E400052D1092A886802EB42044FF007063BD9A9
:102E50009F691E3CA64027EA0606A04030439861C1
:102E6000D8684E69C0F3C100400086400869013847
:102E70009406032861D8DFE800F02F454E57092853
:102E80000AD8586B1E3C1F26A64020EA060002FA0C
:102E900004F420435863D0E70E284FF01F0009D8F0
:102EA0009E6B3C3CA04026EA000002FA04F420435A
:102EB0009863C2E7DE6B5A3CA04026EA000002FAA3
:102EC00004F42043D863B8E75F69A64027EA060602
:102ED000A04030435861C3E71F6E7048384020431C
:102EE000304340F000401866986800F00300012865
:102EF00047D11868C40744D50020002385F83C302A
:102F000003B0F0BD5F6E654838402043304340F069
:102F100000405866E8E79F6E6048384020433043E1
:102F200040F000409866DFE7DF6E5C4838402043A1
:102F3000304340F00040D866D6E7186E00F0F84005
:102F4000A04202BF186E20F000401866586E00F0D4
:102F5000F840A04202BF586E20F000405866986EBC
:102F600000F0F840A04202BF986E20F00040986642
:102F7000D86E00F0F840A042B6D1D86E20F00040E4
:102F8000D9E7CC680120012C00FA02F03BD0D3F83D
:102F9000B01021EA0001C3F8B010102A55D1404901
:102FA000896811F4000FA7D198683E49B3F1A04F8A
:102FB00000F0030018BF4FF0A041012802D11868AB
:102FC000C00762D4886800F00300012802D10968B4
:102FD000C9075AD4102A47D1B3F1A04F8CD1304A37
:102FE000936843F4000393602F4B304A1B68B3FB94
:102FF000F2F30A2253430193019B002B3FF47CAF71
:10300000019B013BF7E7D3F8B040092A40EA0400EE
:10301000C3F8B0008C680CD902EB420198691B39E7
:1030200007268E4020EA060004FA01F10143996167
:10303000B3E7501C596900EB40000722824021EAA7
:103040000202844022435A6156E7112A04D11449EE
:10305000896811F0807FA6E7122A7FF44DAF1049EE
:10306000896811F4800F9EE7112A09D1B3F1A04FAE
:103070007FF442AF0A4A936843F0807393603BE762
:10308000074A936843F48003F8E72B6C43F020036E
:103090002B64012031E7022032E700BF00F0FF83FC
:1030A00000030050000100509000002040420F003B
:1030B000704738B5044600286ED090F820300BB920
:1030C000FFF7F6FF2268136843F001031360FFF770
:1030D000D1FA054623685A68D10751D51A6822F0FB
:1030E00002021A60FFF7C6FA054623685A6892077B
:1030F00054D4227E012A1A680CBF42F0800222F0CA
:1031000080021A60627E012A1A680CBF42F04002F7
:1031100022F040021A60A27E012A1A680CBF42F017
:10312000200222F020021A60E27E012A1A680CBFF7
:1031300022F0100242F010021A60227F012A1A685F
:103140000CBF42F0080222F008021A60627F012AD6
:103150001A680CBF42F0040222F004021A60D4E99B
:1031600002210A4321690A4361690A4361680139FE
:103170000A43DA6100200123606284F820300CE009
:10318000FFF778FA401B0A28A4D9636A43F4003396
:103190006362052384F82030012038BDFFF76AFA06
:1031A000401B0A28A1D9F0E7704770B590F820308D
:1031B000013B012B61D80368D3F8002242F00102E1
:1031C000C3F800224A69D3F81C5202F01F04012000
:1031D000A04025EA0005C3F81C52CD69C44385BB55
:1031E000D3F80C52CE682540C3F80C528D8803EBFF
:1031F000C20245EA0645C2F840528E680D8845EA8B
:103200000645C2F844528A696ABBD3F804222240B8
:10321000C3F804220A6952BBD3F814221440C3F83D
:1032200014420A6A012A02BFD3F81C220243C3F8DF
:103230001C22D3F8002222F00102C3F80022002051
:1032400070BD012DDFD1D3F80C520E680543C3F8D1
:103250000C528D8803EBC20245EA0645C2F8405283
:103260008E688D89CBE7D3F804220243D0E7D3F8E8
:1032700014220243C3F81422D3E7436A43F48023A1
:1032800043620120DCE738B590F82030012B04467A
:103290001FD10268022380F82030136823F0010355
:1032A0001360FFF7E7F905462368586810F001003E
:1032B00001D1606238BDFFF7DDF9401B0A28F3D960
:1032C000636A43F400336362052384F820300120ED
:1032D000F0E7436A43F400234362F8E738B590F817
:1032E0002030022B044622D10268136843F0010308
:1032F0001360FFF7BFF9054623685A68D20708D55F
:103300001A6822F002021A60012384F8203000209B
:1033100038BDFFF7AFF9401B0A28EDD9636A43F4C3
:1033200000336362052384F820300120F0E7436A0C
:1033300043F480134362F8E710B5044670B1FFF719
:10334000CDFF2046FFF730FF22681368002043F4CA
:1033500000431360606284F8200010BD0120FCE788
:10336000F0B590F820500468013D012DA6683ED8C4
:1033700016F0E05F35D0C6F30160012585401D6081
:10338000D1E9025700F1180325BB0D681B0147EA7C
:103390004557E75004EB00130E69C3F88461097DBB
:1033A000012908BFD3F884114FEA001504BF41F486
:1033B0008071C3F884112C445168C4F88C111268D0
:1033C000C4F88821D3F8802142F00102C3F880219B
:1033D0000020F0BD4E683D431B0145EAC605E5509F
:1033E000D8E7436A43F4001343620120F1E7436ADC
:1033F00043F48023F8E7F0B590F82040013C012C1D
:1034000071D8066841B9F468A40707D1436A43F448
:10341000001343620120F0BD3469F5E706EB0115A6
:103420000C01D5F8B07107F004079760002F50D158
:10343000D5F8B0717F0D1760D5F8B07107F00207AD
:10344000D760D5F8B4713F0756BFD5F8B4710827D7
:1034500007F00F071761D5F8B471D5F8B4512644B9
:10346000C7F307272D0C97615561D6F8B8211A705C
:1034700002682244D2F8B821120A5A700268224423
:10348000D2F8B821120C9A7002682244D2F8B821FE
:10349000120EDA7002682244D2F8BC211A71026856
:1034A0002244D2F8BC21120A5A7102682244D2F88E
:1034B000BC21120C9A7102682244D2F8BC21120E6F
:1034C000DA71036851B9DA6842F02002DA6000204C
:1034D000A1E7D5F8B071FF085760ADE71A6942F06F
:1034E00020021A61F3E7436A43F4802391E790F8DE
:1034F0002030013B012B07D8036819B9D86800F0C8
:10350000030070471869FAE70020704790F82030F0
:10351000013B012B05D80268536919435161002012
:103520007047436A43F4802343620120704790F858
:103530002030013B012B06D80268536923EA0101C0
:10354000516100207047436A43F4802343620120A5
:1035500070477047704770477047704770477047B3
:10356000704770472DE9F84F03685E69D3F80490FF
:10357000D3F80880D3F80CB0D3F810A09F6916F0E8
:103580000104054627D018F0010F07D0012218F0DA
:10359000020F9A6000F0A580FEF7BCFF002418F42B
:1035A000807F0AD02B684FF4807218F4007F9A60F5
:1035B00000F0A6802846FEF7C9FF18F4803F0AD025
:1035C0002B684FF4803218F4003F9A6000F0A88016
:1035D0002846FEF7BDFF310707D51BF0100F1FBFB0
:1035E0002B68102244F40074DA60720708D51BF0CF
:1035F000080F05D02B680822DA602846FFF7ACFFD9
:10360000B30706D52B68DB68980702D02846FEF77B
:10361000A1FF710607D51AF0100F1FBF2B681022EB
:1036200044F480641A61B20608D51AF0080F05D078
:103630002B6808221A612846FFF790FFF30606D58B
:103640002B681B69980702D02846FFF786FFB10355
:1036500008D519F0100F05D02B6810225A602846A3
:10366000FFF77DFFF20308D519F0080F05D02B688E
:1036700008225A602846FFF773FF330428D519F053
:10368000040F2A6822D0F00544BF07F001031C4351
:10369000B10503D5BB0748BF44F00204700503D54C
:1036A000790748BF44F0040433050FD517F07003C1
:1036B0000CD0402B54D043D8202B4BD0302B4CD0A7
:1036C000102B44D0936923F070039361042353605B
:1036D0002CB16B6A23436B622846FFF742FFBDE8BB
:1036E000F88F18F0040F05D118F0080F05D1FFF777
:1036F00030FF53E74FF4006451E74FF480544EE736
:1037000018F4806F02D044F4005456E718F4006FA8
:1037100002D044F4804450E72846FFF71BFF4CE7F3
:1037200018F4802F02D044F4004454E718F4002F1A
:1037300002D044F480344EE72846FFF70CFF4AE7F6
:10374000502B10D0602BBDD144F48074BAE744F004
:103750000804B7E744F01004B4E744F02004B1E7EC
:1037600044F04004AEE744F08004ABE70749CA6880
:1037700022F4E0620302120403F4E063120C134328
:1037800043F0BF6343F40033CB60704700ED00E0CB
:10379000164B30B5DC68C4F30224C4F10703251DC1
:1037A000042B28BF0423062D4FF0FF358CBF033CAC
:1037B000002405FA03F321EA0303A54022EA0502E7
:1037C000A340002843EA0203ACBF00F16040084A6E
:1037D0004FEA0313B8BF00F00F00DBB2AABF00F539
:1037E0006140135480F8003330BD00BF00ED00E0AD
:1037F00014ED00E0002807DB044A4109012300F032
:103800001F00834042F82130704700BF00E100E014
:1038100000280CDB4309064900F01F002033012279
:10382000824041F82320BFF34F8FBFF36F8F704763
:1038300000E100E00138B0F1807F0BD24FF0E023CF
:10384000054A5861F02182F8231000200722986170
:103850001A6170470120704700ED00E0002808DB86
:103860004309044900F01F0001226033824041F8FF
:103870002320704700E100E0704708B5FFF7FCFF28
:1038800008BD704710B5044608B9012010BD437F3C
:1038900003F0FF0213B90277FFF7F3FF0223637708
:1038A0002379E3B92368134A5A619A6822F018020F
:1038B0009A6062792368D2B94FF0FF321A619A6830
:1038C000616922F060020A439A609A68A16922F055
:1038D00080020A439A60012363770020D6E7D4E987
:1038E0000212204600F008F80028E2D0CDE7226955
:1038F000E4E700BFB71DC104CB0710B50BD51E23ED
:1039000021FA03F4E40708D5102A18D0102A09D8A0
:1039100062B1082A15D0012010E0013BF0D2102A34
:10392000F4D1F8E7182AF6D1062BF4D800684161E3
:10393000836823F0180313438360002010BD072B16
:10394000F3E70F2BF1E740B190F82130022B06D0BE
:1039500004238363002380F820300120704703682C
:103960001A6822F00E021A601A6822F001021A6028
:10397000D0E90F2101238B4053604FF480730384FF
:103980000020704710B590F82120022A03D00422AD
:103990008263012010BD0268436B116821F00E01A3
:1039A0001160116821F001011160D0E90F140122AA
:1039B000A2404A604FF48072028403B1984700200D
:1039C000E8E700002DE9F74FDFF87091594C00232C
:1039D0000A6832FA03F502D103B0BDE8F08F012581
:1039E00005FA03F818EA020200F09C804E680327EB
:1039F00006F003054FEA430E07FA0EFC6F1E012F77
:103A00006FEA0C0C34D8876807EA0C0ACF6807FA0B
:103A10000EF747EA0A078760476827EA0808C6F3EF
:103A200000179F4047EA08074760C76807EA0C0885
:103A30008F6807FA0EF747EA0807022DC76019D109
:103A40004FEAD30800EB880803F0070AD8F8207083
:103A50004FEA8A0A4FF00F0B0BFA0AFB27EA0B0B0F
:103A60000F6907FA0AF747EA0B07C8F8207001E068
:103A7000032DDAD1076805FA0EF507EA0C073D4376
:103A800016F4403F05604DD0D9F8185045F00105B7
:103A9000C9F81850D9F8185023F0030707F18047E8
:103AA00005F0010507F58037019503F0030C019D32
:103AB000BD684FEA8C0C4FF00F0E0EFA0CFEB0F101
:103AC000904F25EA0E0E2FD01B4DA8422ED005F5A3
:103AD0008065A8422CD005F58065A84214BF052555
:103AE000032505FA0CF545EA0E05BD60A568D74328
:103AF00016F4801F0CBF3D401543A560E56816F421
:103B0000001F0CBF3D401543E560656816F4003F9B
:103B10000CBF3D40154365602568F60354BF3D402A
:103B200015432560013353E70025DAE70125D8E77F
:103B30000225D6E7000401400004004800100240BE
:103B400000690840003818BF012070470AB1816140
:103B50007047816270470000044A5169014208B50C
:103B600002D0506102F0CCFA08BD00BF0004014051
:103B70002DE9F3470546002831D00368DA0710D451
:103B80002B689B077FD42B681C0700F1E4802B680F
:103B9000580700F11F81EB69002B40F0AD81002038
:103BA00046E0AA4C636803F00C03042B07D063685B
:103BB00003F00C03082B14D16368DF0311D54FF415
:103BC0000033216893FAA3F30BB1B3FA83F3012214
:103BD00002FA03F30B42D3D06B68002BD0D1012043
:103BE00026E06A68B2F5803F25D1236843F480332C
:103BF0002360E36AA96823F00F030B43E36252B327
:103C0000FEF738FD4FF40036074696FAA6F6B6FAE8
:103C100086F8002E0CBF31464146226801238B40B6
:103C20001342ADD1FEF726FDC01B6428F1D9032055
:103C300002B0BDE8F087236832B923F480332360F3
:103C4000236823F48023D3E7B2F5A02FF5D143F402
:103C500080232360C9E7FEF70DFD4FF400360746C9
:103C600096FAA6F6B6FA86F8002E0CBF3146414603
:103C7000226801238B40134282D0FEF7FBFCC01B5D
:103C80006428F1D9D3E7714C636813F00C0F07D0A7
:103C9000636803F00C03082B1ED16368DE031BD49A
:103CA0000223216893FAA3F30BB1B3FA83F3012241
:103CB00002FA03F30B4202D02B6993428FD123689F
:103CC0006969F82292FAA2F2B2FA82F223F0F803BA
:103CD00091400B43236056E7012393FAA3F3B3FA11
:103CE00083F303F184532A6903F584139B00C2B163
:103CF00001221A60FEF7BEFC0226074696FAA6F6D7
:103D0000B6FA86F8002E0CBF3146414622680123E0
:103D10008B401342D3D1FEF7ADFCC01B0228F1D972
:103D200085E700221A60FEF7A5FC0226074696FAF0
:103D3000A6F6B6FA86F8002E0CBF31464146226838
:103D400001238B4013423FF41EAFFEF793FCC01BD0
:103D50000228F0D96BE73E4AA9693C4C012393FA4B
:103D6000A3F3B3FA83F313449B00C9B101221A6091
:103D7000FEF780FC0226074696FAA6F6B6FA86F803
:103D8000002E0CBF31464146626A01238B4013422C
:103D90007FF4FDAEFEF76EFCC01B0228F0D946E7AB
:103DA00000221A60FEF766FC0226074696FAA6F67F
:103DB000B6FA86F8002E0CBF31464146626A0123EE
:103DC0008B4013423FF4E3AEFEF754FCC01B0228C5
:103DD000F0D92CE71D4CE369D90034D4E36943F0F2
:103DE0008053E361E36903F080530193019B4FF03B
:103DF0000108184E3368DA052ED5EB68012B3BD14C
:103E0000236A43F001032362FEF734FC4FF00209FA
:103E1000074699FAA9F6B6FA86FA99FAA9F3002B99
:103E200066D1626A002E0CBF3146514601238B4099
:103E3000134255D0B8F1000F3FF4ADAEE36923F063
:103E40008053E361A7E64FF00008D2E7001002407C
:103E50002081901000700040336843F48073336019
:103E6000FEF708FC07463368DB05C6D4FEF702FC04
:103E7000C01B6428F7D9DAE623BB236A23F00103C9
:103E80002362236A23F004032362FEF7F3FB4FF05F
:103E90000209074699FAA9F6B6FA86FA99FAA9F339
:103EA00043B3226A002E0CBF3146514601238B409A
:103EB0001342BFD0FEF7DEFB41F28833C01B9842AD
:103EC000ECD9B4E6052B236A03D143F00403236243
:103ED00096E723F001032362236A23F0040392E7A9
:103EE000FEF7C8FB41F28833C01B984295D99EE685
:103EF000226A97E7626AD5E7434C626802F00C02D7
:103F0000082A6FD0022B4FF0807393FAA3F3B3FA11
:103F100083F303F1845303F584134FEA83034FF0D3
:103F200000021A6045D1FEF7A5FB4FF00076074668
:103F300096FAA6F6B6FA86F8002E0CBF3146414630
:103F4000226801238B4013422DD1D5E90813626802
:103F50000B4322F47412134363604FF0807393FA9F
:103F6000A3F3B3FA83F303F1845303F584139B00A3
:103F700001221A60FEF77EFB4FF00075064695FAA7
:103F8000A5F5B5FA85F7002D0CBF294639462268FC
:103F900001238B4013427FF402AEFEF76BFB801BC4
:103FA0000228F0D943E6FEF765FBC01B0228C3D9FF
:103FB0003DE6FEF75FFB4FF00075064695FAA5F566
:103FC000B5FA85F7002D0CBF294639462268012332
:103FD0008B4013423FF4E3ADFEF74CFB801B0228FD
:103FE000F0D924E6012B3FF4FAAD60682B6A00F4A7
:103FF00080329A427FF4F3AD6B6A00F47010C01AFD
:1040000018BF012014E600BF001002400C4B5A6894
:1040100002F00C01082911D1DB6A0A48C2F383417E
:10402000D20344BF03F00F03074A405C49BFD25C90
:10403000064B074BB3FBF2F35843704704487047F5
:10404000001002406C8500085C85000800093D00F6
:1040500000127A002DE9F0410D46044610B9012006
:10406000BDE8F081444A136803F007038B422ED366
:104070002268910736D4D2073CD43F4A136803F034
:104080000703AB4265D822683C4D12F0040F6CD197
:10409000130706D56B68226923F4605343EAC20311
:1040A0006B60FFF7B3FF6B68F02203F0F00392FA46
:1040B000A2F2B2FA82F2D340314AD35CD840314BFB
:1040C0001860314B1868FEF793FA0020C8E71368B0
:1040D00023F007030B431360136803F007038B42BD
:1040E000BDD1C5E72549A0684B6823F0F003034321
:1040F0004B60C0E76268214E012A306823D14FF43B
:10410000003393FAA3F30BB1B3FA83F3012101FA5D
:1041100003F30342A3D0736823F0030313437360D4
:10412000FEF7A8FA41F2883807467368626803F020
:104130000C03B3EB820FA0D0FEF79CFAC01B4045E6
:10414000F3D903208CE7022A0CBF4FF0007302233F
:10415000D7E7136823F007032B431360136803F0BA
:104160000703AB427FF47BAF8DE76B68E16823F414
:10417000E0630B436B608BE70020024000100240BD
:10418000DC8500089000002064000020084B1868BF
:10419000084B5B684FF4E06203F4E06392FAA2F22A
:1041A000B2FA82F2D340044AD35CD840704700BFD1
:1041B0009000002000100240D4850008084B1868C9
:1041C000084B5B684FF4605203F4605392FAA2F21A
:1041D000B2FA82F2D340044AD35CD840704700BFA1
:1041E0009000002000100240D48500080F230360D7
:1041F0000B4B5A6802F0030242605A6802F0F00268
:1042000082605A6802F4E062C2605B68DB0803F413
:10421000E0630361034B1B6803F007030B60704707
:10422000001002400020024003682DE9F3470546D4
:10423000D80320D54F4CE369D9003CD4E36943F05F
:104240008053E361E36903F080530193019B0126EE
:10425000494F3B68DA0530D5236A13F4407340D1E7
:10426000236A6A6823F44073134323621EB1E3692F
:1042700023F08053E3612A68D40706D53D49A86836
:104280000B6B23F0030303430B63900606D53949F8
:10429000E8680B6B23F0100303430B63110606D58C
:1042A00034492869CB6A23F4F8730343CB62D304FF
:1042B00057D4002012E00026CAE73B6843F480731D
:1042C0003B60FEF7D7F980463B68DB05C4D4FEF7B8
:1042D000D1F9A0EB08006428F6D9032002B0BDE8AC
:1042E000F0876A6802F440729A42B9D0234A216A80
:1042F0004FF4803393FAA3F3B3FA83F313449B0090
:1043000001271F604FF4803393FAA3F3B3FA83F3CA
:1043100013449B0021F440700022CF071A602062F2
:104320009ED5FEF7A7F94FF00209804699FAA9F742
:10433000B7FA87FA99FAA9F38BB9626A002F0CBF12
:104340003946514601238B40134289D1FEF792F939
:1043500041F28833A0EB08009842EBD9BDE7226A0E
:10436000ECE7044A6969136B23F480730B4313630E
:104370009FE700BF001002400070004000819010D5
:10438000036A026A22F0010270B50262426884691F
:104390000D6824F4803424F073042C438D6823F0DA
:1043A00002032B43104DA8420BD005F5A055A8429F
:1043B00007D005F58065A84203D005F58065A842C1
:1043C0000BD1CD6823F008032B43D1E9055622F425
:1043D0004072354323F004032A4342604A688461F3
:1043E0004263036270BD00BF002C0140036A026A91
:1043F00022F4807270B502624268C4690D6824F4C8
:10440000803424F073042C438D6823F4007343EA52
:104410000523114DA8420ED1CD6823F4006343EA71
:10442000052323F48063D1E9055622F44052354335
:1044300042EA05120AE0094DA842F4D005F580656C
:10444000A842F0D005F58065A842ECD042604A68E9
:10445000C461C263036270BD002C01400040014092
:10446000026A036A23F4805330B503624468C36967
:104470000D6823F0807323F4E64343EA05238D6837
:1044800022F4005242EA05320C4DA8420BD005F549
:10449000A055A84207D005F58065A84203D005F5D0
:1044A0008065A84204D14D6924F4804444EA85140F
:1044B0004460C3614B680364026230BD002C01405C
:1044C000026A036A23F4803330B503624468436DA3
:1044D0000D6823F4803323F070032B438D6822F49E
:1044E000003242EA05420D4DA8420BD005F5A05519
:1044F000A84207D005F58065A84203D005F5806580
:10450000A84204D14D6924F4803444EA052444606F
:1045100043654B688365026230BD00BF002C0140DB
:10452000026A036A23F4801330B503624468436D62
:104530000D6823F0807323F4E04343EA05238D687C
:1045400022F4001242EA05520C4DA8420BD005F5A8
:10455000A055A84207D005F58065A84203D005F50F
:104560008065A84204D14D6924F4802444EA85245E
:10457000446043654B68C365026230BD002C014056
:1045800090F83D30012B1FD10223104A80F83D30B6
:10459000036893420AD0B3F1804F07D0A2F594325A
:1045A000934203D002F59E32934207D19968084A9C
:1045B0000A40062A06D0B2F5803F03D01A6842F0BE
:1045C00001021A600020704701207047002C014052
:1045D00007000100704790F83C20012A03464FF085
:1045E000020009D01A6883F83D00516100200122C1
:1045F00083F83D2083F83C0070477047704703689C
:1046000070B5DD681E69B20704460DD5A9070BD544
:104610006FF002021A61012202779B699A0774D037
:1046200001F092FB00232377730710D568070ED59E
:1046300023686FF004021A61022222779B6913F447
:10464000407F204667D001F07FFB002323773107AE
:104650000FD52A070DD523686FF008021A610422CE
:104660002277DB699B0720465BD001F06DFB0023BE
:104670002377F00610D5E9060ED523686FF01002F7
:104680001A6108222277DB6913F4407F20464ED05E
:1046900001F05AFB00232377F20708D5EB0706D574
:1046A00023686FF001021A61204601F02AFB3006F0
:1046B00008D5290606D523686FF080021A612046C6
:1046C00000F003FBF20508D52B0606D523686FF42E
:1046D00080721A61204600F0F9FA700608D5690662
:1046E00006D523686FF040021A612046FFF786FF67
:1046F000B20622D5AB0620D523686FF020022046F3
:104700001A61BDE8704000F0DFBA01F01BFB2046E3
:10471000FFF773FF86E701F015FB2046FFF76DFFFB
:1047200093E701F00FFB2046FFF767FF9FE701F0DB
:1047300009FB2046FFF761FFACE770BD214A036823
:10474000904206D0B0F1804F03D0A2F5943290424F
:1047500008D14A6823F070031343CA6823F44073F6
:10476000134309E0184A9042F7D0184A9042F4D017
:1047700002F580629042F0D04A6923F0800313432F
:1047800003608B68C3620B6883620E4B98420BD048
:1047900003F5A053984207D003F58063984203D0F5
:1047A00003F58063984201D10B69036301234361E0
:1047B0000369DB0704D5036923F001030361704734
:1047C000704700BF002C0140004001400044014000
:1047D00010B5044650B390F83D3003F0FF021BB90A
:1047E00080F83C2001F066FF0223206884F83D3009
:1047F000211DFFF7A3FF012384F84830002084F82F
:104800003E3084F83F3084F8403084F8413084F8FA
:10481000423084F8433084F8443084F8453084F8DA
:10482000463084F8473084F83D3010BD0120FCE765
:1048300010B5044650B390F83D3003F0FF021BB9A9
:1048400080F83C20FFF7C6FE0223206884F83D3044
:10485000211DFFF773FF012384F84830002084F8FE
:104860003E3084F83F3084F8403084F8413084F89A
:10487000423084F8433084F8443084F8453084F87A
:10488000463084F8473084F83D3010BD0120FCE705
:10489000036A026A22F0100270B5026242688469FB
:1048A0000D6824F0807424F4E64444EA05248D68FD
:1048B00023F0200343EA0513114DA8420ED1CD6821
:1048C00023F0800343EA051323F04003D1E90556A2
:1048D00022F44062354342EA85020AE0094DA842CB
:1048E000F4D005F58065A842F0D005F58065A842B2
:1048F000ECD042604A6884618263036270BD00BF8D
:10490000002C01400040014038B590F83C30012BAC
:10491000044673D001200C2A84F83C004ED008D8FD
:10492000042A2BD0082A39D0BAB1002384F83C30AD
:1049300038BD102A52D0142AF7D12068FFF7F0FDB5
:10494000436D0A6943F400634365436D23F4806358
:104950004365436D43EA02234EE02068FFF710FDF4
:1049600083690A6943F008038361836923F00403C0
:1049700083618369134383610020D6E72068FFF7D2
:1049800087FF83690A6943F400638361836923F4C1
:1049900080638361836943EA0223ECE72068FFF7C1
:1049A00025FDC3690A6943F00803C361C36923F0A5
:1049B0000403C361C3691343C361DDE72068FFF7E4
:1049C0004FFDC3690A6943F40063C361C36923F4FB
:1049D0008063C361C36943EA0223EDE72068FFF700
:1049E0006FFD436D0A6943F008034365436D23F08F
:1049F00004034365436D13434365BDE7022097E716
:104A0000036A10B501F01F0101248C4023EA04035E
:104A10000362036A8A401A43026210BD082908B57E
:104A200018D005D859B1042911D090F8433008E0C6
:104A30000C2912D01029F8D190F8423001E090F8FA
:104A40003E30013B18BF012353B1012041E090F8F3
:104A50003F30F6E790F84030F3E790F84130F0E768
:104A600008294FF0020338D006D861B1042931D0AB
:104A7000022380F8433008E00C2931D01029F7D107
:104A800080F8423001E080F83E3000680122FFF7F4
:104A9000B7FF1B4B98420BD003F5A053984207D0A9
:104AA00003F58063984203D003F5806398421AD1DE
:104AB000436C43F400434364114B984203D003F525
:104AC000A053984217D182680E4B1340062B0FD18A
:104AD000002008BD80F83F30D7E780F84030D4E7A9
:104AE00080F84130D1E7B0F1804FECD0064BE8E7D9
:104AF000B3F5803FECD0036843F001030360E7E7C0
:104B0000002C01400700010000040040FFF786BFB1
:104B1000082908B5034629D005D859B104291FD062
:104B200093F843002AE00C2926D01029F8D190F8F8
:104B3000420023E090F83E0093F84420C0B20128E0
:104B4000D2B25AD1012A47D108294FF0020249D0E6
:104B500018D8F1B1042940D0022283F8432048E05C
:104B600090F83F0093F84520C0B2E8E790F8400085
:104B700093F84620C0B2E2E790F8410093F847204E
:104B8000C0B2DCE70C2932D01029E5D183F84220ED
:104B90002FE083F83E2083F8442018680122FFF7B5
:104BA0002FFF174B98420AD0B0F1804F07D0A3F5E2
:104BB0009433984203D003F59E33984207D182681C
:104BC000104B1340062B06D0B3F5803F03D003688B
:104BD00043F001030360002008BD83F83F2083F801
:104BE0004520DAE783F8402083F84620D5E783F8AC
:104BF0004120022283F84720CFE70120ECE700BFE5
:104C0000002C014007000100036A10B501F00F01FC
:104C100004248C4023EA04030362036A8A401A4393
:104C2000026210BD08B529B990F84430012B1DD09F
:104C3000012041E0042907D190F84530012BF7D13C
:104C4000022380F8453014E0082907D190F8463057
:104C5000012BEDD1022380F846300AE090F847306E
:104C6000012BE5D1022380F8473002E0022380F8CF
:104C7000443000680422FFF7C7FF436C43F400434D
:104C800043640E4B98420AD0B0F1804F07D0A3F591
:104C90009433984203D003F59E33984207D182683B
:104CA000074B1340062B06D0B3F5803F03D00368B3
:104CB00043F001030360002008BD00BF002C014049
:104CC00007000100FFF7AEBF7047704770470268EA
:104CD00052E8003F23F4907342E800310268002953
:104CE000F5D102F1080353E8003F23F0010302F17C
:104CF000080C4CE800310029F3D1036E012B07D1D9
:104D000052E8003F23F0100342E800310029F7D1B8
:104D10002023C0F880300023036683667047026852
:104D200052E8003F23F0800342E800310268002986
:104D3000F5D152E8003F43F0400342E8003100293A
:104D4000F7D17047C26F212A034611D1B0F8522023
:104D500092B20AB9FFF7E3BFC26C016812F8010B07
:104D60000885DA64B3F85220013A92B2A3F85220CF
:104D70007047C26F212A034613D1B0F8522092B275
:104D80000AB9FFF7CCBFDA6C006832F8021BC1F336
:104D900008010185DA64B3F85220013A92B2A3F80F
:104DA00052207047704700000346C06F202822D170
:104DB00019B312B3A3F85220A3F850200022C3F86D
:104DC00084202122DA679A68D964B2F5805F10D115
:104DD00018690B4A0B49002818BF0A46DA66196899
:104DE00051E8002F42F0800241E800200028F6D16F
:104DF0007047044AF2E7022070470120704700BF65
:104E0000734D0008454D000808B5406A0023A0F81E
:104E10005A30A0F8523001F077FE08BD704700000C
:104E20000368DA69196870B540F60F0632429D686A
:104E300004460BD1960640F188808E0640F18580AD
:104E4000836E002B7BD0BDE8704018479A4E05F06A
:104E500001000E40064378D0D50709D5CE0507D509
:104E600001251D62D4F8845045F00105C4F8845032
:104E7000950708D538B102251D62D4F8845045F055
:104E80000405C4F88450560708D538B104251D62BE
:104E9000D4F8845045F00205C4F8845015070BD5AA
:104EA00001F02005054307D008201862D4F88400DB
:104EB00040F00800C4F8840016050AD54D0108D555
:104EC0004FF400601862D4F8843043F02003C4F833
:104ED0008430D4F88430002B31D0900605D58A0672
:104EE00003D5A36E0BB1204698472668D4F88420DA
:104EF000B36802F0280203F0400353EA020520469B
:104F00001ED0FFF7E4FEB3685B0615D5226802F1F8
:104F1000080353E8003F23F04003083242E8003121
:104F20000029F3D1606F38B1644B4363FEF72AFD6B
:104F300028B1606F436B86E7204601F0E5FD70BD48
:104F400001F0E2FDC4F88450F9E7206E012840F03A
:104F50008780D60640F18480C80640F18180102207
:104F60001A629A68520649D5616F0A68526892B20D
:104F7000002AE4D0B4F858009042E0D9A4F85A20AE
:104F80008A69202A2ED053E8002F22F4807243E849
:104F900000210029F7D103F1080252E8002F22F086
:104FA000010203F1080040E800210029F3D103F1D8
:104FB000080252E8002F22F0400203F1080040E806
:104FC00000210029F3D12022C4F88020216653E873
:104FD000002F22F0100243E800210029F7D1606F72
:104FE000FEF7B1FC02236366B4F85A30B4F85810E7
:104FF000C91A89B22046FFF711FFA0E7B4F85A207A
:10500000B4F85A1089B292B2002998D0B4F8581066
:10501000891A89B2002992D053E8002F22F49072A5
:1050200043E800200028F7D103F1080252E8002FDE
:1050300022F0010203F1080545E800200028F3D121
:105040002022C4F88020A066206653E8002F22F0BA
:10505000100243E800200028F7D102236366C9E765
:10506000D60209D5680207D54FF4801220461A628D
:10507000BDE8704001F094BD160607D50D0605D5B4
:10508000E36E002B3FF45BAF2046DCE650067FF575
:1050900056AF4A067FF553AF53E8002F22F0400287
:1050A00043E800210029F7D12023E367E166204689
:1050B00001F026FD43E700BF20010004094E00086F
:1050C000D0F88020222A08B5036854D19B8CB0F810
:1050D0005C10426D0B401370436D01334365B0F8B3
:1050E0005A30013B9BB2A0F85A30B0F85A309BB20C
:1050F000002B3FD1026852E8003F23F4907342E84E
:10510000003103680029F5D103F1080252E8002FAD
:1051100022F0010203F1080C4CE800210029F3D130
:105120002022C0F8802041665A688166110205D4A9
:10513000026E012A0BD001F0DFFC1BE053E8002FC8
:1051400022F0806243E800210029F7D1F0E7002235
:10515000026653E8002F22F0100243E800210029E4
:10516000F7D1DA69B0F85810D20644BF10221A629B
:10517000FFF754FE08BD9A6942F008029A61F9E708
:10518000D0F88020222A08B5036851D1998CB0F854
:105190005C201140426D22F8021B4265B0F85A2093
:1051A000013A92B2A0F85A20B0F85A2092B2002ADE
:1051B0003DD153E8002F22F4907243E800210029EA
:1051C000F7D103F1080252E8002F22F0010203F1A7
:1051D000080C4CE800210029F3D12022C0F88020DF
:1051E00041665A688166110205D4026E012A0BD00D
:1051F00001F082FC1BE053E8002F22F0806243E8BC
:1052000000210029F7D1F0E70022026653E8002FC1
:1052100022F0100243E800210029F7D1DA69B0F842
:105220005810D20644BF10221A62FFF7F7FD08BDDE
:105230009A6942F008029A61F9E710B590F878305F
:10524000012B1CD0012380F878302423C367026827
:1052500052E8003F23F00C0342E800340168002CC0
:10526000F5D151E8002F42F0080241E80023002B5D
:10527000F7D12022C26780F87830184610BD02208E
:10528000FCE710B590F87830012B1CD0012380F892
:1052900078302423C367026852E8003F23F00C03F0
:1052A00042E800340168002CF5D151E8002F42F0AB
:1052B000040241E80023002BF7D12022C26780F8C6
:1052C0007830184610BD0220FCE7C26FD0F880008D
:1052D0001043704738B50446C0692169A268236845
:1052E0000A4361691D680A434149024329400A4350
:1052F0001A605A68E168256A22F440520A435A60EB
:105300009968A26921F430612A430A439A60394AB4
:10531000934214D1384B1B6B03F00303013B022B68
:105320005AD8364AD35CB0F5004F2ED1082B51D84D
:10533000DFE803F0550F1550125050501600304A58
:10534000934249D002F580629B1A18BF01231B01CA
:10535000E9E7FEF733FF44E0FEF758FE41E0294855
:105360006268530803EB4003B3FBF2F34FF6EF72AE
:10537000A3F1100191422DD823F00F02216892B2BF
:10538000C3F342031343CB602DE0082B22D8DFE8A0
:1053900003F0141805211B2121211E001948626801
:1053A00000EB5203B3FBF2F34FF6EF72A3F11001DF
:1053B00091420FD82268D36015E0FEF7E7FE90B166
:1053C000EDE7FEF7FBFEFAE7FEF720FEF7E74FF406
:1053D0000040E4E7012007E0B0F5004FEDD1FEF713
:1053E000D5FE0028BCD100200023C4E91A3338BD03
:1053F000F369FFEF00380140001002407C8500088F
:105400000044004000127A00436A1A0710B506D51E
:105410000168446B4A6822F4004222434A60DC0778
:1054200006D50168846A4A6822F4003222434A6041
:10543000990706D50168C46A4A6822F4803222437B
:105440004A605A0706D50168046B4A6822F4802234
:1054500022434A60DC0606D50168846B8A6822F420
:10546000805222438A60990606D50168C46B8A6817
:1054700022F4005222438A605A060FD50168046C58
:105480004A6822F480122243B4F5801F4A6005D195
:105490004A68446C22F4C00222434A601B0606D5C7
:1054A0000268816C536823F400230B43536010BDE2
:1054B0002DE9F843DDF8209004460D46174698463E
:1054C0002268D36935EA03030CBF01230023BB42E2
:1054D00001D0002022E0B9F1FF3FF2D0FDF7CAF879
:1054E000A0EB0800484529D8B9F1000F26D0216863
:1054F0000B685A07E4D5802DE2D0402DE0D0CE696C
:1055000016F008060CD0082520460D62FFF7DFFBD9
:105510000023C4F8845084F878300120BDE8F88373
:10552000CB691B05CCD54FF400630B622046FFF717
:10553000CEFB2023C4F8843084F878600320EDE7A4
:1055400073B504460026C0F88460FDF793F823681D
:105550001B681A0705461BD56FF07E430093324641
:1055600003464FF400112046FFF7A2FF80B12268E6
:1055700052E8003F23F0800342E800310029F6D1D1
:105580002023E3670320002384F8783002B070BD45
:1055900023681B685B0724D56FF07E4300930022CD
:1055A0002B464FF480012046FFF782FFC8B12268E6
:1055B00052E8003F23F4907342E80031226800294A
:1055C000F5D102F1080353E8003F23F0010302F193
:1055D000080040E800310029F3D12023C4F88030CE
:1055E000D0E720230020E367C4F88030206660669F
:1055F000C9E710B5044640B3C36F1BB980F87830D3
:10560000FFF7D0FB22682423E367136823F001032C
:105610001360636A13B12046FFF7F6FE2046FFF7DA
:1056200059FE012811D023685A6822F490425A602A
:105630009A6822F02A029A601A6842F00102204613
:105640001A60BDE81040FFF77BBF012010BD10B508
:10565000044660B3C36F1BB980F87830FFF7A2FB34
:1056600022682423E367136823F001031360636A4D
:1056700013B12046FFF7C8FE2046FFF72BFE012896
:1056800015D023685A6822F490425A609A6822F032
:1056900022029A609A6842F008029A601A6842F000
:1056A000010220461A60BDE81040FFF749BF012003
:1056B00010BD0000A0F85820A0F85A20826841656B
:1056C0000023B2F5805F83662CD10369002B40F282
:1056D000FF1318BFFF23A0F85C300023C0F884300C
:1056E0002223C0F88030026802F1080353E8003F2B
:1056F00043F00103083242E8003102680029F2D188
:1057000081680369B1F5805F27D1DBB1154B8366F2
:1057100052E8003F43F4907342E800310029F7D18A
:10572000002070472AB90369002B0CBFFF237F2399
:10573000D1E7B2F1805FCED10369002B0CBF7F238C
:105740003F23C8E7084B836652E8003F43F020033D
:1057500042E800310029F7D1E2E702498166002BD7
:10576000F2D0D5E7C15000088151000838B5D0F813
:105770008030202B13D1A1B19AB1002304680366B5
:1057800063681B0207D554E8003F43F0806344E898
:105790000035002DF7D1FFF78DFF002038BD022026
:1057A000FCE70120FAE7836810B504462BB1032219
:1057B000014698470023C4E9023310BD836810B541
:1057C000044613B1032201469847204610BD4B1EE4
:1057D000032B00D9FEE78900081F70470139435C9D
:1057E00013F0100004D0022916D80C4A32F8110028
:1057F000DB0712D503290FD8DFE801F00205080BFB
:1058000040F00100704740F01000704740F4807095
:10581000704740F480507047FEE770478885000865
:105820000139032900D9FEE7014B585C704700BFDE
:10583000838500080139032900D9FEE7014B585C34
:10584000704700BF7F8500082DE9F04104460E46F1
:10585000FFF7BDFF04EB061808F164080546314662
:105860002046FFF7DDFFD8F808302BB12369C2438B
:105870001A61DA680243DA60771E04EB47039B88FB
:105880000B2B49D8DFE803F0511818180606181832
:105890004A4A4A2AE35DDE0604D5294604F110008F
:1058A000FFF710FAE35DD80736D5294604F110005A
:1058B000BDE8F041FFF72AB9E35DD90604D52946D2
:1058C00004F11000FFF7AEF9E35DDA0724D52946AD
:1058D00004F11000BDE8F041FFF7A0B8294604F13B
:1058E0001000FFF715F931462046FFF7A3FF2569A1
:1058F000014606462046FFF771FF2B6A1843D8F889
:105900000830286243B131462046FFF789FFC34380
:105910002B61EB681843E860BDE8F081294604F18B
:105920001000BDE8F041FFF7F3B823691B68DB07FF
:10593000F2D404F11000BDE8F041FEF721BE70B5CD
:1059400001250446861C294636F8023F23B1294624
:105950002046FFF779FF00210135052DF4D1E36ED4
:105960003BB123696FF001021A61DA6842F001026B
:10597000DA6049B123691B68DB0705D404F1100024
:10598000BDE87040FEF7FCBD70BD01211030FEF790
:1059900022BE0369186800F00100704710B5024686
:1059A0000C46FFF7F6FF80B9CB68DB070ED5CB6856
:1059B00023F00103CB601046FFF7E7FF6FF0010310
:1059C0002361E36843F00103E36010BDBDE81040CC
:1059D0001046FFF7DABF00001B4B984221D0B0F110
:1059E000804F20D0A3F5943398421ED003F5406336
:1059F00098421CD003F5806398421AD003F5963381
:105A0000984218D003F58063984216D003F580635E
:105A1000984214D04FF6FF734FF6FF72934210D1A5
:105A2000FEE70023F8E701207047022070470320BB
:105A300070470420704705207047062070470720F4
:105A400070470020704700BF002C0140F8B50446A5
:105A50000846FFF7C1FF236903B1FEE71B4D84F839
:105A60002C3004F10C0245F8202004F110060E221F
:105A7000C4E90C33C4E90E33C4E91033C4E9172375
:105A80002161A36484F84C3084F84D30E4603046E2
:105A900000F018FD04F1640504F1B4072846103540
:105AA000FFF781FEBD42F9D10023C4E900334FF670
:105AB000FF72C4E90632C4E90833A360636180233E
:105AC000A3623046BDE8F840FEF782BE30040020F5
:105AD00010B586B014220446002101A801F0EDFFA4
