:020000040800F2
:1000000000300020BD5F00080D6000080D60000892
:100010000D6000080D6000080D6000080000000081
:100020000000000000000000000000000D6000085B
:100030000D600008000000000D600008DD3A0008B7
:100040000D6000080D6000080D6000080D600008DC
:100050000D6000080D600008ED3A0008F33A000852
:100060000D600008F93A0008FF3A00080D6000082A
:100070000D6000080D6000080D6000080D600008AC
:100080000D6000080D6000080D600008333A00089C
:10009000D53600080D6000080D600008053B00081B
:1000A000AD3A0008373A0008C13A00080D60000870
:1000B0005D3A0008713A0008000000000D60000879
:1000C0000D60000800000000000000000D60000846
:1000D00000000000B13B0008C93B0008E53B0008F8
:1000E0002D3B00080D60000800000000000000002B
:1000F0000000000000000000000000000000000000
:1001000000000000000000000000000000000000EF
:100110000000000000000000853A0008993A00083D
:1001200000000000000000000000000000000000CF
:1001300000000000000000000000000000000000BF
:100140000D6000080D6000080000000000000000C5
:10015000000000000000000000000000000000009F
:10016000000000000000000000000000000000008F
:10017000000000000000000000000000000000007F
:08018000000000000D60000802
:10019000084B1A78084BA02101FB023300221046BD
:1001A000197909B10130C0B201320C2A03F10D03F3
:1001B000F6D17047D80600200000002003681847D9
:1001C000012A02D1016000207047022A05D0032ACB
:1001D000F9D0002AF7D10260F5E70B680360F2E777
:1001E000044A431C516818BF013053685B1A8342AC
:1001F000FBD37047D806002003689A6802F0030218
:10020000012A10B501D0002010BD1A68D107FAD517
:100210009A6802F00D02012A11D19A680D4942F044
:1002200002029A6003221A604C689A68D207EAD5E3
:100230004A68121B022AF8D99A68D207F5D5036CCE
:1002400043F010030364436C43F001034364012053
:10025000DAE700BFD8060020002807DB044A41097E
:10026000012300F01F00834042F82130704700BF97
:1002700000E100E000280CDB4309064900F01F0004
:1002800020330122824041F82320BFF34F8FBFF378
:100290006F8F704700E100E0164B30B5DC68C4F3A7
:1002A0000224C4F10703251D042B28BF0423062DB7
:1002B0004FF0FF358CBF033C002405FA03F321EA1D
:1002C0000303A54022EA0502A340002843EA0203F3
:1002D000ACBF00F16040084A4FEA0313B8BF00F01A
:1002E0000F00DBB2AABF00F56140135480F8003361
:1002F00030BD00BF00ED00E014ED00E02DE9F74F48
:10030000DFF87091594C00230A6832FA03F502D1E4
:1003100003B0BDE8F08F012505FA03F818EA0202E0
:1003200000F09C804E68032706F003054FEA430E59
:1003300007FA0EFC6F1E012F6FEA0C0C34D8876889
:1003400007EA0C0ACF6807FA0EF747EA0A07876040
:10035000476827EA0808C6F300179F4047EA0807DE
:100360004760C76807EA0C088F6807FA0EF747EA84
:100370000807022DC76019D14FEAD30800EB88089F
:1003800003F0070AD8F820704FEA8A0A4FF00F0BE3
:100390000BFA0AFB27EA0B0B0F6907FA0AF747EA81
:1003A0000B07C8F8207001E0032DDAD1076805FAC1
:1003B0000EF507EA0C073D4316F4403F05604DD0AB
:1003C000D9F8185045F00105C9F81850D9F8185057
:1003D00023F0030707F1804705F0010507F5803793
:1003E000019503F0030C019DBD684FEA8C0C4FF0A2
:1003F0000F0E0EFA0CFEB0F1904F25EA0E0E2FD024
:100400001B4DA8422ED005F58065A8422CD005F5DD
:100410008065A84214BF0525032505FA0CF545EAB9
:100420000E05BD60A568D74316F4801F0CBF3D4084
:100430001543A560E56816F4001F0CBF3D40154349
:10044000E560656816F4003F0CBF3D4015436560EC
:100450002568F60354BF3D4015432560013353E73B
:100460000025DAE70125D8E70225D6E70004014098
:1004700000040048001002400D4A516801F00C03CE
:10048000082B12D1D26A0B4BC1F38340C90348BF7A
:1004900002F00F02185C51BF074B9B181A7C074BE8
:1004A00048BFB3FBF2F3584370470448704700BF9E
:1004B0000010024098A1000800093D0000127A00D7
:1004C000436A1A0710B506D50168446B4A6822F4DE
:1004D000004222434A60DC0706D50168846A4A6804
:1004E00022F4003222434A60990706D50168C46AA3
:1004F0004A6822F4803222434A605A0706D50168CE
:10050000046B4A6822F4802222434A60DC0606D546
:100510000168846B8A6822F4805222438A609906BB
:1005200006D50168C46B8A6822F4005222438A60AF
:100530005A060FD50168046C4A6822F480122243DF
:10054000B4F5801F4A6005D14A68446C22F4C002A9
:1005500022434A601B0606D50268816C536823F467
:1005600000230B43536010BD026852E8003F23F4A0
:10057000907342E8003102680029F5D102F10803C6
:1005800053E8003F23F0010302F1080C4CE800316E
:100590000029F3D1036E012B07D152E8003F23F06D
:1005A000100342E800310029F7D12023C0F8803041
:1005B0000023036683667047D0F880200368222AF0
:1005C00051D19B8CB0F85C10426D0B401370436DA1
:1005D00001334365B0F85A30013B9BB2A0F85A3062
:1005E000B0F85A309BB2002B41D1026852E8003F6C
:1005F00023F4907342E8003103680029F5D103F138
:10060000080252E8002F22F0010203F1080C4CE826
:1006100000210029F3D12022C0F8802041665A68C9
:100620008166110206D4026E012A0CD0D0F88830FF
:100630000438184753E8002F22F0806243E8002175
:100640000029F7D1EFE70022026653E8002F22F0DD
:10065000100243E800210029F7D1DA69D20606D555
:1006600010221A6270479A6942F008029A61704734
:10067000D0F880200368222A50D19A8CB0F85C30E0
:100680001A40436D23F8022B4365B0F85A30013B02
:100690009BB2A0F85A30B0F85A309BB2002B41D12F
:1006A000026852E8003F23F4907342E80031036887
:1006B0000029F5D103F1080252E8002F22F00102CF
:1006C00003F1080C4CE800210029F3D12022C0F8E6
:1006D000802041665A688166110206D4026E012AA2
:1006E0000CD0D0F888300438184753E8002F22F097
:1006F000806243E800210029F7D1EFE7002202667B
:1007000053E8002F22F0100243E800210029F7D11E
:10071000DA69D20606D510221A6270479A6942F049
:1007200008029A617047026852E8003F23F0800394
:1007300042E8003102680029F5D152E8003F43F059
:10074000400342E800310029F7D17047C26F212AE7
:10075000034610D1B0F8522092B202B9E3E7C26C5E
:10076000016812F8010B0885DA64B3F85220013AE7
:1007700092B2A3F852207047C26F212A034612D1C9
:10078000B0F8522092B202B9CDE7DA6C006832F8C4
:10079000021BC1F308010185DA64B3F85220013A63
:1007A00092B2A3F8522070471B4B984221D0B0F16F
:1007B000804F20D0A3F5943398421ED003F54063B8
:1007C00098421CD003F5806398421AD003F5963303
:1007D000984218D003F58063984216D003F58063E1
:1007E000984214D04FF6FF734FF6FF72934210D128
:1007F000FEE70023F8E7012070470220704703203E
:100800007047042070470520704706207047072076
:1008100070470020704700BF002C014086B00428BC
:1008200042D8DFE800F003111D2935001F4B5A693B
:1008300042F400325A615B6903F400330193019B77
:100840004FF0904006B07047184B19485A6942F46F
:1008500080225A615B6903F480230293029BF1E7D3
:10086000124B14485A6942F400225A615B6903F43E
:1008700000230393039BE5E70C4B0F485A6942F4AE
:1008800080125A615B6903F480130493049BD9E7D7
:10089000064B0A485A6942F480025A615B6903F4C4
:1008A00080030593059BCDE70020CBE700100240B5
:1008B0000004004800080048000C004800140048EC
:1008C000431C02D1002070470C310B685A1CF9D030
:1008D0009842F9D1486870470346581C06D118461B
:1008E0007047834201D1886870470C310868421C08
:1008F000F7D1704703468B42084604D01BB100294C
:100900000CBF1846002070470368384A934288B0ED
:1009100018D102F56442916941F4006191619269D4
:1009200002F400620092009A314A934217D1314B8F
:100930009A6942F480329A619B6903F4803305938B
:10094000059B43E0B3F1804F17D12A4AD16941F0AA
:100950000101D161D26902F001020192019A264A95
:10096000934218D1234B9A6942F400329A619B69F1
:1009700003F400330693069B28E0204A934218D1E3
:1009800002F50332D16941F00201D161D26902F06E
:1009900002020292029A1A4A934217D1154B9A699F
:1009A00042F480229A619B6903F480230793079B9A
:1009B0000CE0144A93420BD10E4BDA6942F010025C
:1009C000DA61DB6903F010030393039B08B07047FF
:1009D0000D4A9342A8D1074BDA6942F02002DA614E
:1009E000DB6903F020030493049BEFE7002C014034
:1009F000004001400010024000440140000400405B
:100A0000004801400010004000140040431C21D069
:100A1000184B984221D00BD8A3F5805398421ED092
:100A200003F5406398421CD0B0F1804F1BD0FEE725
:100A3000114B984219D008D8A3F5C053984214D04E
:100A400003F5A053984212D0F1E70C4B9842EED137
:100A50001A2070476FF00D007047372070471D2037
:100A60007047362070471C207047192070471820A7
:100A7000704700BF0014004000440140004801409E
:100A8000431C21D0194B984221D010D8A3F58E33A6
:100A900098421ED007D8B0F1804F1CD0A3F5406318
:100AA00098421AD0FEE7124B984218D0FAE7114B41
:100AB000984216D003F58063984214D0A3F50063E2
:100AC0009842EFD1182070476FF00D0070471B203F
:100AD0007047362070471C2070471D207047372014
:100AE0007047192070471A20704700BF002C014042
:100AF000001400400044014018281AD8164B03EB9C
:100B000080031B6A5A1C25D0C3F30310124A042821
:100B100003F00F0398BF02EB800002EB830298BF43
:100B2000D0F8AC00D2F8C03088BF002089B1836112
:100B3000704700F0C003C02B0CD1C9280AD8064B5F
:100B400000F03F0003EB8000D0F8842003EB820329
:100B5000D7E78362704700BF98A10008B0F848311A
:100B6000B0F84421981A00F03F007047B0F84831BF
:100B7000B0F844219BB293421ABFD0F83C31985C44
:100B80004FF0FF30704738B5D0F82C3101330446B0
:100B900030D10368DB68984794F8503153BBD4F8E0
:100BA0002C310122013384F8502123D194F83911DA
:100BB0001A4B03EB81039B6893F87810914219D08C
:100BC00083F878202422DA67196851E8002F22F090
:100BD0000C0241E800251868002DF5D150E8002FDF
:100BE00042F0040240E800210029F7D12022DA6710
:100BF00083F87810B4F84821B4F8443192B29A429C
:100C00001FBFD4F83C21D05C013303F03F0314BF75
:100C1000A4F844314FF0FF3038BD00BFD8060020A3
:100C200090F84631B0F84A01C0B2834227BFC3F101
:100C30003F03C018C01A00F1FF30704707B50368C2
:100C40008DF807105B6801220DF10701984703B08A
:100C50005DF804FB38B5094D6B68C3600446236832
:100C600020465B699847002807DAE2686B689B1AA0
:100C7000A2689342F3D34FF0FF3038BDD80600206E
:100C8000F8B507460D468E180C46B44201D1601BDC
:100C9000F8BD3846FFF7DEFF431CF8D004F8010B1F
:100CA000F3E72DE9F0410746884616461D4673B125
:100CB00000243846FFF7CEFF431C05D0404503D043
:100CC00030550134A542F4D12046BDE8F0811C46E0
:100CD000FAE738B50D460446002840D0204BC0F84E
:100CE000903090F9A400FFF7C5FA94F8A5201D4BA9
:100CF000B4F8B61003EB820389B29B68DA6F202A3E
:100D000005D094F9A400BDE83840FFF7A5BAD4F89F
:100D1000AC205218F5D0ADB2002DF2D0DA6400222A
:100D2000A3F85250C3F884202122DA679A68A3F806
:100D30005050B2F5805F10D118690B4A0B4900285A
:100D400018BF0A46DA66196851E8002F42F080029F
:100D500041E800200028F6D1D3E7044AF2E738BD85
:100D6000710D0008D8060020790700084D0700081B
:100D7000B0F8B620D0F8B81011FA82F202F03F02B3
:100D800010B5A0F8B620B0F8B620B0F8B21092B204
:100D900091421AD0B0F8B640B0F8B620A4B24031B3
:100DA000091B4C4292B204F03F0401F03F01C2F132
:100DB000400258BF6142914228BF1146C0F8B810A6
:100DC000FFF787FF4FF0FF3010BD0020FCE703293D
:100DD0009CBF114B03EB810310B598BFD3F80041C2
:100DE000A1F1020388BF4FF040740E2B98BF090495
:100DF000A2F1020394BFA1F580310021062B98BF18
:100E00001205064B94BFA2F580120022C3E91941D6
:100E1000DA66D86510BD00BF98A10008D80600208A
:100E2000084AD2F88430516899688907FCD518734C
:100E30009968C907FCD5187B5268C0B29A68120637
:100E4000FCD47047D8060020024B012193F804011E
:100E500052E600BFD806002003689A6812F00C0F13
:100E600030B501D1002030BDDA68940104D5018B82
:100E700040F2011291420DD06C2212E0013A0AD1E7
:100E8000036C43F010030364436C43F001034364B9
:100E90000120E8E7164A19684906EFD540221A6092
:100EA0000C2299684D0706D599688C075EBF996832
:100EB00041F0100199600C2A18D09A6811070DD4DE
:100EC0000C220C4C656899680A42CBD06168491BBA
:100ED0000B29F8D999681142F5D0D1E79A689207A1
:100EE000EED49A6842F020029A60E9E70422E8E72B
:100EF00001940900D8060020F8B50468174EE5698A
:100F000031EA050501D1002018E07568AD1AAB4241
:100F100022D325686D07F2D58029F0D04029EED084
:100F2000E56915F008050AD008252562FFF71CFBC6
:100F30000023C0F8845080F878300120F8BDE769BC
:100F40003F05DCD54FF400632362FFF70DFB202340
:100F5000C0F8843080F878500320EFE7D8060020EE
:100F60002DE9F0411F46C36F202B04460E4642D1A7
:100F7000002942D0002A40D021230025C0F8845007
:100F8000C3671F4BA0F85020D3F804808368A0F8F3
:100F90005220B3F5805F03D103690BB90D461E469D
:100FA000B4F852309BB24BB93B46424640212046F2
:100FB000FFF7A2FF202348B9E36709E03B4642461A
:100FC00080212046FFF798FF20B12023E36703200C
:100FD000BDE8F08122685EB935F8023BC3F308032F
:100FE0001385B4F85210013989B2A4F85210D7E72A
:100FF00016F8013BF4E70220EAE70120E8E700BF2A
:10100000D8060020244B93F878109A6D01390129F5
:1010100095BF5169D96F21F0020141F4802194BF3D
:101020005161D96793F878100139012995BF516949
:10103000D96F21F0010141F4802194BF5161D9673A
:1010400093F87810022921D1116841F00101116053
:1010500058685168C90705D5116821F0020111606F
:10106000012108E05968091A0A29F2D9D96F41F417
:101070000031D967052183F87810116841F40041E7
:1010800011600022DA6783F878207047D96F41F445
:101090008011D967F1E700BFD806002070B51C4E5B
:1010A0000546002445FA04F116F8010F01F001018C
:1010B0000134FFF721FD042CF4D1164D164E95F89E
:1010C00015010021FFF718FD144B7268D3F8204377
:1010D000134BB4FBF3F473689B1A9C42FBDC95F84A
:1010E00015010121FFF708FD72680B4E73689B1A0A
:1010F0009C42FBDC002195F81501FFF7FDFC642301
:10110000726805495C434B689B1A9C42FBDC70BDCE
:10111000ED070020D8060020001000E000000020AD
:1011200040420F0010B5074B0446002193F814010C
:10113000FFF7E2FC2009FFF7B1FF2046BDE81040B1
:10114000ACE700BFD8060020074B93F81D218A4268
:101150009CBF02F1FF32D1B20B4493F81E31184408
:1011600060F07F00C0B2DDE7D806002070B5094E00
:10117000441E14F8015F05B970BD96F814010121F1
:10118000FFF7BAFC2809FFF789FF2846FFF786FF1B
:10119000EFE700BFD80600202DE9F0410646A02465
:1011A0000021154DDFF8548074430846FFF7CCFF4B
:1011B0002859FFF7DBFF88F80060FEF7E9FF98F891
:1011C00022610D2306F0FC0603FB064404342C4484
:1011D00007460025AB199F4206DD0820E9B2FFF75C
:1011E000B3FF2046FFF7C2FF0135042D04F10D04C3
:1011F000F0D1BDE8F08100BF00000020D80600203B
:10120000D0F88030202B10B53CD100230366036852
:101210005A68120237D4416581680122A0F858202B
:10122000A0F85A20B1F5805F4FF00002826633D1FA
:101230000269002A40F2FF1218BFFF22A0F85C20CA
:101240000022C0F884202222C0F8802003F1080286
:1012500052E8002F42F0010203F1080444E80021A3
:101260000029F3D181680269B1F5805F2FD11AB3EB
:10127000194A826653E8002F42F4907243E8002135
:101280000029F7D110BD53E8002F42F0806243E8F7
:101290000024002CF7D1BEE729B90269002A0CBF4F
:1012A000FF227F22CAE7B1F1805FC7D10269002A1D
:1012B0000CBF7F223F22C1E7084A826653E8002F15
:1012C00042F0200243E800210029F7D1DAE7024981
:1012D0008166002AF2D0CDE7B90500087106000842
:1012E0000368DA69D10712D501221A6290F8A120A9
:1012F0000F4B03EB82039A68D36FD2F8802013431D
:1013000003F02203222B11D000F1A20178E7DA6961
:10131000920701D50222E8E7DA69510701D50422D4
:10132000E3E7DA691207E1D50822DEE7704700BF7C
:10133000D80600200368DA69196870B540F60F0610
:1013400032429D6804460CD1960640F19F808E067D
:1013500040F19C80836E002B00F09780BDE87040C8
:101360001847A34E05F001000E40064300F08E80A2
:10137000D50709D5CE0507D501251D62D4F88450BF
:1013800045F00105C4F88450950708D538B1022509
:101390001D62D4F8845045F00405C4F88450560703
:1013A00008D538B104251D62D4F8845045F00205F3
:1013B000C4F8845015070BD501F02005054307D06C
:1013C00008201862D4F8840040F00800C4F88400B3
:1013D00016050AD54D0108D54FF400601862D4F8FF
:1013E000843043F02003C4F88430D4F88430002BD8
:1013F0004BD0900605D58A0603D5A36E0BB12046C7
:1014000098472668D4F88420B36802F0280203F0D5
:10141000400353EA0205204633D0FFF7A5F8B3682E
:101420005B062AD5226802F1080353E8003F23F047
:101430004003083242E800310029F3D1606FE0B187
:101440006C4B436390F82130022B04D00423836358
:10145000BDE87040E7E003681A6822F00E021A60E7
:101460001A6822F001021A60D0E90F2101238B4093
:1014700053604FF480730384EAE72046BDE8704070
:101480002EE7FFF72DFFC4F8845070BD206E0128B1
:1014900040F09680D60640F19380C80640F19080D7
:1014A00010221A629A6852065AD5626F116849680A
:1014B00089B20029E9D0B4F858008842E5D9A4F8E7
:1014C0005A109169202934D053E8001F21F480710B
:1014D00043E800100028F7D103F1080151E8001F8C
:1014E00021F0010103F1080545E800100028F3D1BF
:1014F00003F1080151E8001F21F0400103F1080544
:1015000045E800100028F3D12021C4F8801020669F
:1015100053E8001F21F0100143E800100028F7D124
:101520003AB192F82130022B08D00423936382F859
:10153000200002236366B4F85A30A6E713681968DE
:1015400021F00E011960196821F001011960D2E93A
:101550000F10012383404B604FF480731384E8E73E
:10156000B4F85A20B4F85A1089B292B200298CD03B
:10157000B4F85810914288D053E8002F22F49072AA
:1015800043E800210029F7D103F1080252E8002FB7
:1015900022F0010203F1080040E800210029F3D104
:1015A0002022C4F88020A166216653E8002F22F093
:1015B000100243E800210029F7D10223636664E7A3
:1015C000D6020AD5680208D54FF4801204F1A201B0
:1015D00020461A62BDE8704012E616060CD50D06CC
:1015E0000AD5E36E002B3FF450AF2046B6E600BFAD
:1015F000200100042716000850067FF546AF4A0672
:101600007FF543AF53E8002F22F0400243E800216A
:101610000029F7D12023E367E166D4F88C30201F3E
:10162000BDE870401847406A0023A0F85A30A0F87F
:10163000523055E6002370B5C0F884300668254B5B
:101640005D6833681A07044616D56FF07E432A4654
:101650004FF40011FFF750FC70B1226852E8003FD0
:1016600023F0800342E800310029F6D12023E3670C
:10167000002384F8783070BD33685B0722D56FF0A3
:101680007E432A464FF480012046FFF735FCC8B15F
:10169000226852E8003F23F4907342E80031226848
:1016A0000029F5D102F1080353E8003F23F00103BC
:1016B00002F1080040E800310029F3D12023C4F8EA
:1016C0008030D5E72023E367C4F880300023236609
:1016D0006366CDE7D806002010B5114C4FF47A723E
:1016E000D4F82033B3FBF2F3013BB3F1807F014622
:1016F00014D24FF0E020F02243610A4B0F2983F807
:1017000023204FF000024FF007038261036105D8E8
:101710004FF0FF30FEF7C0FDC4F8241310BD00BF2A
:101720000000002000ED00E0074A0849136843F07C
:1017300010031360CA68064B22F4E0621204120C14
:101740001343CB600020C7E70020024000ED00E01B
:101750000003FA05836801460BB10322184770475E
:101760002DE9F043C6280CBF07244FF0FF3491B099
:10177000200FFFF753F80E46054600286CD004F002
:101780000F044FF0010808FA04F88C680023CDE933
:101790000333CDE905331FFA88F934B1022203A8D7
:1017A000A047F368B4680693059400274FEA5909E7
:1017B0000137B9F1010FFFB2F8D1E868294ECDF831
:1017C0002C80032279004FF444130C9302FA01F3A6
:1017D0000340CB40134028460BA9CDE90D32FEF75C
:1017E0008DFD142303FB076607AD00230793043622
:1017F000C5E901330A9394B3022203A92846A047FE
:10180000DDE9054C95E8030001AA174B82E80300C7
:10181000142101FB073707F5947393E8030085E86B
:10182000030092E8030083E80300B36809932846A5
:10183000F368B460C6F80CC00A93FFF78BFF97F902
:10184000240100220621FEF727FD97F92401FEF767
:1018500003FD03A8FFF77EFF11B0BDE8F083A446A7
:10186000D0E700BFFC070020D806002010B50446D2
:1018700002F00EFC214682B2BDE81040014864230C
:10188000FFF76EBB3C09002010B5044602F000FCD7
:101890000A4B93F822211B78A0214B430D2101FB19
:1018A0000233C0F10C0004330028A8BF1B18044801
:1018B00021461844BDE8104007F092BBD80600202E
:1018C000000000200346406C2DE9F041002834D090
:1018D0004469CF7924F001044461D1F8008077BBDA
:1018E000C4460C7A6CBBCE7A93F864E085680EF13E
:1018F000FF3EBEF1010F52D815F0E05F29D0C5F3CD
:10190000016505F11802FFB944EA4C5412018450F4
:1019100000EB0510C0F884610A69C0F88C21CA6820
:10192000C0F88821D0F8802142F00102C0F880215F
:101930005A6C536943F001035361BDE8F0810427F9
:10194000CFE700260224CFE744EAC80444F00404A9
:10195000DCE7986E40F400109866002AE8D19C8974
:101960001A8AA4B20134B4FBF2F002FB1044DA8903
:10197000A4B292B29442DBD098895D690A4680B2E3
:10198000182101FB00555718164603CEBE422860A9
:101990006960324605F10805F6D19C81C8E7986E6A
:1019A00040F48020D8E7B5EEC00AF1EE10FA10B589
:1019B000034629D4DFED157AB4EEE70AF1EE10FA0A
:1019C000D4BF10EE100A17EE900A114CC4F8283359
:1019D000042384F8333302F0C7FC0E4B002202F0DC
:1019E0001BFD0D4B002202F061FB02F0C5FF00223F
:1019F000C4F8340304F54A710848FFF763FF4FF059
:101A0000904308229A6110BD0020DEE76E12834ADF
:101A10000000002000408F400000E03FEC06002066
:101A20002DE9F04F2DED028BDFF8AC9299F80030E4
:101A300099F822210C2101FB0322A14B03EB820325
:101A40009DB0D3F81041A76882467B1E002613F88C
:101A5000018FB8F1000F04D145467B5D3BB9354697
:101A60000CE0B8F1640F04BF0136F6B2EFE72E2B9D
:101A700059D1C5F34705002D08BF3546A6EB050B28
:101A80005FFA8BFB584602F04DFC9FED8B0B41EC4F
:101A9000110BD4ED008A07F0ABFA38468DED060B3A
:101AA00002F0F6FA730009902E213846089307F0E9
:101AB00077FABDEEE88ADDE9083200B101339A42D7
:101AC000D4BF804FFF18AE422FD118EE103A7E4996
:101AD0007E480097324607F041FA7C490CA807F08F
:101AE0007FFA00252F460CA802F0D2FAFEB2B042CF
:101AF00001D9072D36D199F80C331CAA013B52FAB3
:101B000083F3BAF1010F13F8482C3ED1092A3DD1D5
:101B1000013D03F8488C062D45D8DFE805F03E6806
:101B2000717D8C9EB300013597E7F8EE487A0297F5
:101B300078EEE77A17EE900A02F016FCDDE906234C
:101B400002F06AFC624B002202F0B0FA02F014FFCD
:101B500018EE103ACDE900B05E495C482A4607F01D
:101B6000FDF9BAE706F170030DEB030616F8403CE9
:101B7000303BDBB2092B06D805F170026A4401350F
:101B800002F8483CEDB20137ADE71AB152445FFAB2
:101B900082F8BDE74FF00908BAE79DF82820A16850
:101BA0000FA807F0DBF90FA804F031FA51EC100B85
:101BB00002F002FF20600FA802F06AFA99F82211E1
:101BC000C0F1140001F00301C0B2FFF7BDFA0FA885
:101BD000FFF7CCFA0FA8FFF757FE94ED000AA08894
:101BE000FFF7E1FE1DB0BDEC028BBDE8F08F9DF864
:101BF00029309DF82820A1680FA807F0AFF9D2E797
:101C00009DF82A3000939DF828209DF82930A1687E
:101C10000FA807F0A3F9C6E79DF82B3001939DF8B4
:101C20002A3000939DF828209DF82930A1680FA83C
:101C300007F094F9B7E79DF82C3002939DF82B300C
:101C400001939DF82A3000939DF828209DF82930B3
:101C5000A1680FA807F082F9A5E79DF82D3003933E
:101C60009DF82C3002939DF82B3001939DF82A307B
:101C700000939DF828209DF82930A1680FA807F04F
:101C80006DF990E79DF82E3004939DF82D30039365
:101C90009DF82C3002939DF82B3001939DF82A304B
:101CA00000939DF828209DF82930A1680FA807F01F
:101CB00055F978E7AFF300800000000000002440F1
:101CC00098A10008FDAA000852AA0008C409002033
:101CD0000000E03F62AA0008D806002070B5194E47
:101CE00050F8044C0FCE86B06D460FC596E8030041
:101CF00085E80300A289E38992B29BB29A421ED082
:101D0000E2896369182192B201FB02336D465E18C5
:101D1000186859682A4603C20833B3421546F7D1FA
:101D2000E389228A9BB20133B3FBF2F102FB113348
:101D30009BB2E381012269462046FFF7C3FD06B04E
:101D400070BD00BF98A300082DE9F843036804465E
:101D50009B6890460F469847D4F82C31B4F84661FA
:101D6000012201338146C6F14006227429D194F83C
:101D7000503133B3002394F8391184F850313D4B7E
:101D800003EB81039B6893F87810914219D083F894
:101D900078202422DA671A6852E8001F21F00C012B
:101DA00042E800151868002DF5D150E8001F41F0F9
:101DB000080140E80012002AF7D12021D96783F8F2
:101DC0007820236820469B6898470028F9D045462C
:101DD000B5422DD84D452BD8B4F84661D4F8400112
:101DE0007319402B304438D82A46394605F0ADF8EF
:101DF0002E46B4F8463194F839211D441D4B03EBAF
:101E0000820305F03F059A68A4F84651D36FD2F8D3
:101E10008020134303F02103212B06D0C4F84C612A
:101E2000314604F19400FEF754FF4046BDE8F883C4
:101E30004E45236828BF4E46324639465B682046E9
:101E40009847236820469B689847AD1B3744B4F8F1
:101E500046618146C6F14006BAE7C6F14006324601
:101E6000394605F072F8D4F84001AA1BB91905F0FB
:101E70006CF8BEE7D806002030B591FAA1F391FACC
:101E8000A1F1B3FA83F3C4685B000325B1FA81F1D1
:101E900005FA03F3490024EA03038A401A43C260A7
:101EA00030BD012A02D0022A18BF0022E4E70A4B03
:101EB000D3F82003094B5B684FF4E06203F4E0635E
:101EC00092FAA2F2B2FA82F2D340054A134493F88E
:101ED0001832D840704700BF0000002000100240B8
:101EE00098A100082DE9F843B84CA36DE0630546BE
:101EF000002B00F0E680B64A934200D0FEE7D4F80B
:101F0000102304F154039A4240F0DB80FFF7CFFF27
:101F1000B04B984240F08C80AF4B9D427ED0AF4B8F
:101F20009D427DD0AE4B9D427CD0AE4B9D427BD03E
:101F3000AD4B9D427AD0AD4B9D4240F09E80052333
:101F4000AB4A0C2101FB032393F8282293F82712B4
:101F5000B3F82402FEF73BFFFFF754F894F878300B
:101F6000A36D1A6842F001021A6061685A68D007CE
:101F700040F1A9801A6822F002021A6061685A686A
:101F8000920700F1C28094F87020012A1A680CBFF1
:101F900042F0800222F080021A6094F87120012A37
:101FA0001A680CBF42F0400222F040021A6094F816
:101FB0007220012A1A680CBF42F0200222F020028F
:101FC0001A6094F87320012A1A680CBF22F01002DC
:101FD00042F010021A6094F87420012A1A680CBFAB
:101FE00042F0080222F008021A6094F87520012AD3
:101FF0001A680CBF42F0040222F004021A60D4E90D
:1020000018210A43A16E0A43E16E0A43E16D0139CA
:102010000A43DA610022E26701225EE000238FE7D3
:1020200001238DE702238BE7032389E7042387E756
:10203000704B984221D1684B9D4216D0684B9D420F
:1020400015D0684B9D4214D0674B9D4213D0674B0F
:102050009D4212D10423664A0C2101FB0323022274
:1020600093F86F12B3F86C0274E70023F3E70123CF
:10207000F1E70223EFE70323EDE701234FF0160812
:1020800040F2014EB0FBF3FCBCFBF8F2954215D3D5
:102090000126F2B202EB42010139C9B2B700BCFB22
:1020A000F7F94D4501D198B254E70131C9B2112970
:1020B00007F10107F3D10136062EEAD1013373454A
:1020C000E0D1BDE8F8836268521A0A2A7FF64EAF63
:1020D000E26F42F40032E267052284F8782094F837
:1020E0004020C2B194F87820012A40F0AE8002224C
:1020F00084F878201A6822F001021A6061685A6830
:1021000012F0010278D1E26782E06268521A0A2A6C
:102110007FF635AFDCE7012184F8401094F87810A1
:10212000013901294DD8D3F8001241F00101C3F85B
:102130000012D3F81C1221F00101C3F81C12D3F8CD
:102140000C1241F00101C3F80C12C3F84022C3F88D
:102150004422D3F8042222F00102C3F80422D3F867
:10216000142222F00102C3F81422D3F81C2242F0F8
:102170000102C3F81C22D3F8002222F00102C3F8A6
:10218000002201221546D3F8001241F00101C3F8E4
:102190000012D3F81C1205FA02F021EA0001C3F87C
:1021A0001C12D3F8141221EA0001C3F81412D3F858
:1021B0000012013221F001010E2AC3F80012E2D10F
:1021C00090E7E26F42F48022E267DAE7D806002067
:1021D00000640040006CDC0240420F0000350C003F
:1021E00020A1070090D0030048E80100A08601006C
:1021F00098A1000840A5AE026268521A0A2A7FF62A
:102200007EAFE26F42F40032E267052284F8782064
:1022100094F87820013A012A95BF5A69E26F42F09A
:10222000020242F4802294BF5A61E26794F8782057
:10223000013A012A95BF5A69E36F42F0010243F463
:10224000802394BF5A61E3673BE7E26F42F40022C8
:1022500059E70A4BD3F82003094B5B684FF46052EF
:1022600003F4605392FAA2F2B2FA82F2D340054A22
:10227000134493F81832D840704700BF0000002084
:102280000010024098A1000838B50446C0692269D0
:10229000A36825681343626929681343414A0343CD
:1022A0000A4013432B606B68E268216A23F44053B1
:1022B00013436B60AA68A36922F430620B43134393
:1022C000AB60394B9D4217D103F558431B6B03F0AC
:1022D0000303013B022B58D8344A134493F8A43229
:1022E000B0F5004F2DD1082B40D8DFE803F0510F97
:1022F000153F123F3F3F16002D4B9D4245D003F541
:102300008063EB1A18BF01231B01E9E7FFF7A1FF68
:1023100040E0FEF7B1F83DE026486268530803EB61
:102320004003B3FBF2F34FF6EF72A3F110019142B9
:102330001CD823F00F0292B2C3F342031343EB60A5
:102340002AE0082B12D8DFE803F0131705111A1141
:1023500011111D001748626800EB5203B3FBF2F342
:102360004FF6EF72A3F110019142E8D9012014E079
:10237000FFF79DFD80B1EEE7FFF76BFFFAE7FEF791
:102380007BF8F7E74FF40040E5E7B0F5004FEFD1F9
:10239000FFF78DFD0028C0D100200023C4E91A33C7
:1023A00038BD00BFF369FFEF0038014098A1000875
:1023B0000044004000127A0038B5044628B3C36FC9
:1023C0000BB980F8783025682423E3672B6823F065
:1023D00001032B60636A13B12046FEF771F82046B3
:1023E000FFF752FF012810D06B6823F490436B6015
:1023F000AB6823F02A03AB602B6843F001032B602A
:102400002046BDE83840FFF715B938BDF8B5471C80
:1024100006460C4600D1FEE73F4B00F00F0203EBEF
:102420008203C0F30310D3F8C010FEF7F7F991FA56
:10243000A1F3B3FA83F3876803225B0002FA03F384
:1024400091FAA1F2B2FA82F227EA030752000323BB
:1024500093403B4304F007058360032D03D8DFE876
:1024600005F057592503FEE7032391FAA1F2B2FACA
:1024700082F206685200032707FA02F226EA0206F1
:1024800091FAA1F2B2FA82F252009340013D334335
:10249000012D036005D8436822074CBF0B438B43D3
:1024A0004360C4F30112BDE8F840FAE4C4F3062225
:1024B0007F2A17D0360717D50B0A93FAA3F6B6FA78
:1024C00086F6476A93FAA3F3B6004FF00F0CB3FAFF
:1024D00083F30CFA06F69B0027EA060602FA03F3DA
:1024E000334343620223C0E791FAA1F3B3FA83F3C3
:1024F000066A9B000F2707FA03F326EA030691FA00
:10250000A1F3B3FA83F39B009A4032430262E9E7F6
:102510000023AAE70123A8E798A10008431C05D1DE
:102520007047984201D1896870E70C310B685A1CDA
:10253000F7D1FEE72DE9F04FAE4CD4F8F08085B02E
:1025400081460E464046AC491746FEF7B9F9AB49FD
:102550000190D4F8EC00FEF7B3F9A9490090D4F843
:10256000F400FEF7ADF9D4F8F8A0A64905465046A8
:10257000FEF7A6F9019B8346002B00F02081009A0C
:10258000002A00F01C81002D00F019811146184628
:10259000FEF7B0F9594602462846FEF7ABF9014668
:1025A0001046FEF7A7F90546C4F8E800002A00F037
:1025B0000681002900F00381002800F00081BAF1B3
:1025C000FF3F0CBF4FF400734FF48023C4F89C30DE
:1025D0004FF48273C4F888308B4BC4F88400D3F86E
:1025E00020038A4B9D4201D1FFF733FEB9EB500F18
:1025F00080F0E880B9EB900F80F0E680B9EBD00F67
:1026000080F0E480B9EB101F80F0E280B9EB501F3E
:1026100080F0E080B9EB901F80F0DE80B9EBD01F36
:102620002CBF30233823C4F8A030002E00F0D68011
:10263000022E00F0D580013E18BF0126760001234E
:10264000B7FA87F7C4E925637F0907234FF000092C
:102650006949C4F8B03040464FF4E063FF01C4F864
:102660009030C4E92979C4F88C90C4F8AC90C4F8CF
:10267000B890FFF753FF6149D4F8EC00FFF74EFF25
:102680005F49D4F8F400FFF749FFD4F89430D4F848
:10269000F4104B45C1F303105D4B14BF012202221D
:1026A00001F00F01042898BF03EB800003EB8103C6
:1026B00098BFD0F8AC00D3F8C01088BF4846FFF7E9
:1026C000F0FB5049D4F8F800FFF728FF4F4B9D422C
:1026D00012D103F560439A6942F480529A619A6973
:1026E00002F480520392039ADA6842F48052DA606C
:1026F000DA6822F48052DA60D4F8A800D4F888703E
:1027000000286FD1B7F5827F01D0C4F8A000002364
:10271000C4F8AC3094F8E13003F0FF020BB984F850
:10272000E020022384F8E1302B68D4F8901023F0E5
:102730004003B1F5E06F2B6058D90026B1F5706FFA
:102740001CBF0023C4F8AC30D4F88C30D4F89C20E3
:1027500007F4827703F404433B43D4F8947007F002
:1027600002073B43D4F8987007F001073B4302F49B
:1027700000773B43D4F8A07007F038073B43D4F808
:10278000A47007F080073B432B60D4F8B83000F00A
:10279000100003F00803034301F47061120C0B43B3
:1027A00002F00402134333436B600023C4F8E430A7
:1027B000012384F8E1302B6843F040032B6005B01F
:1027C000BDE8F08F00232EE708232CE710232AE72B
:1027D000182328E7202326E7282324E733462FE77A
:1027E00000232DE70023C4E9253390E74FF48056FA
:1027F000A6E700BFD806002040A4000864A4000893
:1028000088A40008ACA400080000002000300140AB
:1028100098A1000810B50E4CD4F80C01D4F8FC3087
:10282000B4F81011834203D1B4F800318B4207D0C1
:10283000A4F80011CAB2090AC4F8FC00FFF77AFE36
:1028400094F804010021BDE81040FEF755B900BF1F
:10285000D806002038B5044629B100210620FFF72C
:10286000F9FFFEF7F1FAAB2C0CD0FFF7D3FF0520F0
:10287000FEF7D6FA0020FEF7D3FA0546FEF7E4FA93
:10288000EB07F2D4FFF7C6FF2046BDE83840FEF75D
:10289000C7BA826810B50AB907F06CFCBDE81040F1
:1028A000C36818470B4B5A69024211D05861002384
:1028B000012803F1010208D10748DBB2142202FB10
:1028C0000300043083681BB1E3E740081346EFE7D9
:1028D000704700BF00040140FC070020037F013B5C
:1028E000072B14D8DFE803F00411130D1313130F93
:1028F000012350F8040C1B0164331844836833B17E
:10290000C7E70323F5E70423F3E70223F1E7704762
:10291000036870B5DD681E69B10704460BD5AA07C8
:1029200009D56FF002021A61012202779B69FFF755
:10293000D5FF0023237770070DD569070BD52368D2
:102940006FF004021A610222227720469B69FFF78A
:10295000C5FF0023237732070DD52B070BD523683E
:102960006FF008021A61042222772046DB69FFF724
:10297000B5FF00232377F0060DD5E9060BD52368B4
:102980006FF010021A61082222772046DB69FFF7F8
:10299000A5FF00232377F2070CD5EB070AD52368A0
:1029A00054F8040C6FF001021A61C36E13B1643065
:1029B000FFF76FFF300605D5290642BF23686FF089
:1029C00080021A61F20505D52B0642BF23686FF419
:1029D00080721A61700605D5690642BF23686FF0E0
:1029E00040021A61B20605D5AB0642BF23686FF0FC
:1029F00020021A6170BD037C43B1054BB0F846213B
:102A00005B68B0F84A319BB29A42FAD1704700BF76
:102A1000D80600202DE9F04F8BB01828019117D867
:102A20009C4B03EB80031D6A6B1C00F005829A4EE1
:102A3000C5F303139A0006EB830305F00F09D3F8DF
:102A40001433029223FA09F3DF0750D5934B15E0B4
:102A500000F0C003C02B40F0EF81C92800F2EC81E8
:102A60008C4B00F03F0003EB8000D0F8842003EB98
:102A70008203D8E7954200F0CA810C331A68541CCF
:102A8000F8D1874B1A68501C26D0954200F01E8161
:102A90000C33F7E700232268012101FA03F322EA4D
:102AA0000303236002238DF818108DF818307D4B36
:102AB0009C4228D103F5CE331A6942F000521A61C4
:102AC0001A6922F000521A61DA6922F00052DA61C2
:102AD000002309938DF81830029B1E440122D6F87A
:102AE000143302FA09F223EA0203C6F81433019BF5
:102AF000012B0CBF0199002128460BB0BDE8F04F17
:102B000084E41023C7E7684B9C42E1D103F5BC3352
:102B10001A6942F080621A611A6922F080621A61B1
:102B2000DA6942F08062DA61DB6903F08063049362
:102B3000049BCDE7B1F1804F0CD15C4AD36923F0FF
:102B40000103D3615A4B99420CD1584A936923F43B
:102B500000339DE0574B99420CD1544AD36923F07E
:102B60000203D361544B99420CD1504A936923F428
:102B700080238DE0514B994215D14C4AD36923F003
:102B80001003D36106EB80000023C0F82833E36014
:102B900004F1B40704F1640ABA450CD0103F38467A
:102BA000FEF7D8FDF8E7464B994269D13F4AD36911
:102BB00023F02003E5E7204605F0E2FE8CE74149DB
:102BC0008B4200F01F813A498B4200F01B8101F5D6
:102BD00080618B4200F01681A16A22F080020A43D4
:102BE0001A60E269DA6262699A62374A93420BD0EC
:102BF00002F5A052934207D002F58062934203D0BF
:102C000002F58062934201D1626A1A6301225A611D
:102C1000196906EB8707C90748BF1969D7F828A3C0
:102C200044BF21F00101196184F8582084F84E2036
:102C300084F84F2084F8502084F8512084F85220E2
:102C400084F8532084F8542084F8552084F85620C2
:102C500084F8572084F84D20CAF80040DAF8004084
:102C6000002C3FF439AF21690846FDF79DFD164B56
:102C700099427FF45FAF0D4A936923F40063936137
:102C8000104B99427FF45EAF084A936923F4803376
:102C9000936177E798A10008D8060020D0A4000827
:102CA00000A5000800740040009800400010024099
:102CB0000044014000040040004801400010004072
:102CC0000014004000400140002C01405C492846AF
:102CD000FDF7F6FDFDF768FD06EB80030746D3F828
:102CE00028A3BAF1000FB9D1B42005F041FE544930
:102CF00004462846FDF7E4FD04F16408034604F1A8
:102D0000B40B40465146C0E90011C0E90211103031
:102D10008345F8D118460393FDF746FD039B2361D5
:102D200006EB800004F10C020E2304F1100AC0F837
:102D30002823C4E90C11C4E90E11C4E91011C4E937
:102D4000173184F82C10A16484F84C1084F84D10CD
:102D5000E4605046FDF7D8FDD8F8083033B10322BF
:102D60004146404698470023C8E9023308F110085D
:102D7000D845F1D100234FF6FF72C4E90632C4E909
:102D80000033C4E90833A36063618023A36294F82D
:102D90004D3003F0FF020BBB504684F84C20FDF78A
:102DA000B3FD2069FDF732FED4E917128246FDF724
:102DB00073FA5046FDF750FA22691046FDF760FE9F
:102DC00082461046FDF722FE824507D05046D4E9E0
:102DD0001712FDF761FA5046FDF73EFA022384F818
:102DE0004D30184923698B421A6807D0B3F1804FE0
:102DF00004D0A1F594318B427FF4E1AEA16922F0B9
:102E000070020A43216A22F440720A43E4E60E4942
:102E10002846FDF755FD044600283FF45DAE0A49FB
:102E20002846FDF759FDC0F3C43001283FF432AE07
:102E300002283FF466AEFEE70BB0BDE8F08F00BF9E
:102E400000A50008002C0140D0A400082DE9F043A3
:102E5000984DD5F8BC319DB03BB105F5DA71032230
:102E6000084698470023C5E96F3395F9B011924B96
:102E7000002293F90000884201D1D86868B9013274
:102E8000102A03F11403F4D18C4A136823F0800351
:102E9000136095F9B001FDF7EDF9DFF83C824C22A3
:102EA000002109A8D8F8407303F0C2FF0023844929
:102EB000ADF806300720FDF703FD81490890044670
:102EC0000720FDF709FDC0F3C436731E112B00D98E
:102ED000FEE7002C00F03E834FF44033082F0993A7
:102EE00000F083800A2F00F08280062F01D1182382
:102EF0000A9304230D9301230F9312930023189335
:102F000007220293C8F84423189AD20614D4189BB7
:102F1000002B6ED00023A268D00002D5A2689100D9
:102F20000AD5189B23F0120343F010031893199B42
:102F300043F0010319930123189AD20600F1048388
:102F4000002B40F00183A368580700F1FD82189B15
:102F500023F4817343F0020318935A4BB4F1A04F4A
:102F600008BF9946A36803F0030318BF4FF0A049B8
:102F7000012B02D12368D9070ED4D9F8083003F009
:102F80000303012B03D1D9F80030DA0704D44E4AE9
:102F9000936843F440339360A3680A9A13F00C0FCC
:102FA00001BFE36823F4804323F00203E360E16898
:102FB000464B0B40134343F48053E360236B0022E2
:102FC00023F00F0323631992189B23F0030343F0AC
:102FD00001031893012307928DF85C30A3685B0707
:102FE0007CD5189B43F02003B3E2102380E708232D
:102FF0007EE7B4F1A04F199344D1354B5A6942F0A2
:1030000080525A615A6902F080520692069A5A69B1
:1030100042F080525A615B6903F080530593059B2F
:1030200027490720FFF77AFAA368D9003FF572AF66
:1030300008A8FDF7E1F8189AD20603463FF56BAFF2
:1030400000287FF468AF189B224A23F4885323F0AA
:10305000020343F002031893A36823F04053A360D4
:10306000A36843F08053A360D8F82033B3FBF2F396
:103070000A2253430293029B002B3FF44BAF029B67
:10308000013BF7E70F4B9C42CAD1114B5A6942F002
:1030900080525A615A6902F080520492049A5A6925
:1030A00042F080525A615B6903F080530393039BA3
:1030B000B6E700BFD8060020FC070020000401404E
:1030C000D4A60008000100500003005007C0F0FF24
:1030D0000010024040420F0000000020236B23F448
:1030E000F86343EA86132363A36813F00C0F37D108
:1030F000092E06EB46034FF0070240F2EF81A1696B
:103100001E3B9A4021EA0202042101FA03F3134311
:10311000A361E368236E03F0F843B3EB866F02BF4D
:10312000236E23F000432366636EB20603F0F84378
:103130009A4202BF636E23F000436366A36E03F0FE
:10314000F8439A4202BFA36E23F00043A366E36EE6
:1031500003F0F8439A4202BFE36E23F00043E366B4
:10316000A36803F00303012B02D12368D8073AD4E4
:10317000D4F8B0300122B24023EA0203102EC4F882
:10318000B03040F0B581A74B9B6813F4000F2AD1F3
:10319000A36803F00303012B03D12368D9073FF58C
:1031A00020AFD9F8083003F00303012B04D1D9F87C
:1031B0000030DA073FF515AF102E40F0AB81B4F1C7
:1031C000A04F10D1974A936843F400039360D8F856
:1031D0002033954AB3FBF2F30A2253430793079B2C
:1031E000002B40F09481012608A88DF85C60FDF763
:1031F00003F8002840F0AE811896A36823F08043BE
:10320000A360A36843F00043A3606A68A368002B2F
:10321000C0F29181189B23F0030343F0010318933C
:10322000A3685B0700F1968101238DF85C30A368E9
:1032300003F00303012B40F0CA812368DE0740F14D
:10324000C681189B23F4706323F0010343F4807359
:103250001893744B9B68D80603D0B4F1A04F40F08C
:10326000D481189B23F480131893E3689E0141BF17
:10327000189B23F4405343F480531893189B13F482
:1032800080531CBF199B23F00603199300238DF86C
:103290005C301C232360634B9A68D0060CD09A687C
:1032A00002F01F02052A07D09B6803F01F03092BB9
:1032B00002D0B4F1A04F03D1A36843F00403A3608C
:1032C000584B9A68D10640F0AC81E26812F0010FC9
:1032D0007FF487AE9B68DA0603D0B4F1A04F40F0CC
:1032E000A481E2686968236813F00C0F00F0A181E3
:1032F000189B43F400731893E36802F4005103F43D
:1033000040630B4312D123681B070FD5A36813F04A
:10331000040F189B40F09B8123F480731893189B33
:10332000DE0403D4189B43F00103189350045CBFE0
:103330000C232360189B990548BF236C4FF00106AE
:1033400048BF9BB208A848BFADF806308DF85C6056
:10335000FDF782FD002840F0FD8008A8FCF74CFF37
:10336000002840F0F780189B8DF85C0023F4885308
:1033700023F0010333431893189B08A843F002037A
:103380001893FDF769FD002840F0E480E36843F4FA
:103390000013E36008A8FCF72FFF002840F0DA8054
:1033A000189663686FF30A03636040F2FF7323604B
:1033B000A36823F0E043A360A36843F00053A36035
:1033C000E2681A4B1340E36063696FF3DD036361E6
:1033D000A36903F07843A361236A03F0F023236217
:1033E000636A03F0FF236362A36A03F0FF23A3620F
:1033F000226B0F4B13402363636B0E4A13406363CE
:10340000A36B1340A363E36B23F4FB6323F0070375
:10341000E363226E084B1A402266626E1A406266AF
:10342000A26E0BE00003005040420F0004800080B9
:10343000300882E0200882E000F0FF031A40A26614
:10344000E26E1340E366D4F8A030944A1340C4F807
:10345000A030D4F8A4301340C4F8A430D4F8B0306D
:103460001340C4F8B030D4F8B43023F07F13C4F85C
:10347000B430A36803F00303B34202D12368DA0730
:103480000ED4D9F8083003F00303012B03D1D9F887
:103490000030DB0704D4824A824B91680B40936072
:1034A000B4F1A04F40F0DB807F4B9A6A42F080522B
:1034B0009A629A6A22F080529A629A6A42F0805224
:1034C0009A629A6A22F080529A625A6922F0805275
:1034D0005A615A6922F080525A61C4E061699A4087
:1034E00021EA0202042101FA03F31343636110E6A7
:1034F000112E04D16A4B9B6813F0807F47E6122E91
:103500007FF471AE664B9B6813F4800F3FE6079B18
:10351000013B63E6112E09D1B4F1A04F7FF463AEF5
:103520005F4A936843F0807393605CE65C4A9368FB
:1035300043F48003F8E76B689B1A0A2B7FF666AEAC
:10354000A368002BBFF662AE189B23F0120343F072
:10355000100318930023D8F8482397420AD040F26A
:103560008E80BA1A012191408B42C0F08F800133C6
:10357000D340013B0021C62085F84833FFF74AFAC3
:1035800000230993494B0893494B0B9308A9494BD6
:103590000A93C620FEF7E4F808A8FEF7DBF80A2233
:1035A00095F84833B3FBF2F3C3F10703DBB2012212
:1035B000022B85F849236BD0032B6BD093426BD140
:1035C0003D493E481DB0BDE8F04305F009BDA26885
:1035D0003B4B1A4208D0189B43F010031893199BD9
:1035E00043F001031993B5E7A36843F00103A36017
:1035F0006A682368DB073FF524AE6B689B1A022BD1
:10360000F7D92368D907F4D4E5E7189B43F480136E
:1036100018932C4B9C427FF431AE4FF0A043DB68F3
:1036200024E69A6812F4404F52E64FF0A043DA685D
:1036300058E66B685B1A0A2B7FF655AE236813F0C9
:103640000C0F7FF450AE189B43F0040381E743F066
:1036500020031893199B43F00103199366E6194B55
:103660009C423FF421AF00230D4A199318939368AD
:1036700023F0E0739360BDF806309BB26BE7002B3C
:103680003FF478AF0133D21B934072E7002371E718
:103690000D4996E70D4994E70D4992E70100F8FFBF
:1036A00000030050E0103CFE001002404D2E0008C8
:1036B000BD010008C101000877AA0008220A002005
:1036C0003F000080000100507CAA000881AA000889
:1036D00086AA00082DE9F04F7D4BD3F810538BB02C
:1036E000002D00F0D1806A685669D2F80480D2F8C3
:1036F0000890D2F80CA01369019316F001049769A1
:103700002AD019F0010F05F1040B08D0012119F09E
:10371000020F916000F0BB805846FEF7DFFA0024EC
:1037200019F4807F0AD06A684FF4807119F4007F21
:10373000916000F0B5805846FEF7D0FA19F4803F4A
:103740000AD06A684FF4803119F4003F916000F0AC
:10375000B3805846FEF7C2FA320707D51AF0100FA9
:103760001FBF6B68102244F40074DA60730705D53C
:103770001AF0080F1EBF6B680822DA60B00729D55F
:103780006B68DB68990725D0DFF848A1D5F800C041
:10379000BAE80F000DF1100EAEE80F009AE8030032
:1037A0008EE8030095F82430013B012B00F22481C0
:1037B0006B68DA68920740F08F80AB6A43F40013BD
:1037C000AB6295F82430013B012B03D86B68DB68B2
:1037D0009B07E7D1700607D5019BD90641BF6B68EF
:1037E000102244F480641A61B20605D5019B1B07C0
:1037F00042BF6B6808221A61F00644BF6B681B6900
:10380000B10305D518F0100F1EBF6B6810225A6067
:10381000F20305D518F0080F1EBF6B6808225A6026
:1038200033042DD518F0040F6B6827D0F00544BF82
:1038300007F001021443B10503D5BA0748BF44F0AD
:103840000204700503D5790748BF44F0040432052B
:1038500014D517F0700711D0402F00F0E48000F26B
:10386000D180202F00F0D980302F00F0D980102F88
:1038700000F0D0809A6922F070029A6104225A60A6
:1038800014B1AB6A1C43AC620BB0BDE8F08F19F009
:10389000040F06BFC9F3C00424034FF400643FE7DC
:1038A00019F4806F02D044F4005447E719F4006F14
:1038B00018BF44F4804441E719F4802F02D044F447
:1038C000004449E719F4002F18BF44F4803443E75B
:1038D000D806002098A30008D3F8B021D3F8B0117F
:1038E00012F004020BBF490DC90802910391D3F8ED
:1038F000B011D3F8B401000758BFD3F8B401D3F81E
:10390000B4A1D3F8B4E1D3F8B8B18DF81CB0D3F8B2
:10391000B8B14FEA1B2B8DF81DB0D3F8B8B14FEA00
:103920001B4B8DF81EB0D3F8B8B14FEA1B6B8DF866
:103930001FB0D3F8BCB18DF820B0D3F8BCB14FEABA
:103940001B2B8DF821B0D3F8BCB14FEA1B4B8DF87F
:1039500022B0D3F8BCB14FEA1B6B8DF823B0D3F87B
:103960000CB04BF0200B01F0020154BF00F00F002F
:1039700008204FEA1A2A4FEA1E4EC3F80CB0002A5C
:103980003ED0039B01220493EB6A8DF82530BCF8EE
:1039900000308DF817209BB2BCF804208DF824A0CD
:1039A000C1F3400101338DF81810B3FBF2F102FBB3
:1039B0001133BCF80220ADF814E09BB292B29342EE
:1039C0008DF81B003FF4FDAEBCF80010DCF80820B9
:1039D00089B218200DF1100A00FB0122D646BEE87C
:1039E000030051600AA98E451060F24602F10802F8
:1039F000F4D1ACF80030E4E6AB6A43F48023DFE6B0
:103A0000029BC0E7502F11D0602F7FF433AF44F4F6
:103A100080742FE744F008042CE744F0100429E7F1
:103A200044F0200426E744F0400423E744F08004F7
:103A300020E7FFF74FBE10B5074CD4F8280310B1AC
:103A40000430FEF765FFD4F8400320B1BDE8104014
:103A50000430FEF75DBF10BDD8060020034BD3F83D
:103A60002C0310B10430FEF753BF7047D806002076
:103A7000034BD3F8300310B10430FEF749BF704751
:103A8000D8060020034BD3F8340310B10430FEF7FE
:103A90003FBF7047D8060020034BD3F8380310B15E
:103AA0000430FEF735BF7047D8060020034BD3F82B
:103AB0003C0310B10430FEF72BBF7047D80600203E
:103AC000034BD3F8440310B10430FEF721BF704715
:103AD000D806002004F054BF04F052BF024A5368D5
:103AE00001335360704700BFD80600200120FEF765
:103AF000D9BE0220FEF7D6BE0820FEF7D3BE1020A6
:103B0000FEF7D0BE08B52020FEF7CCFE4020FEF721
:103B1000C9FE8020FEF7C6FE4FF48070FEF7C2FE9D
:103B2000BDE808404FF40070FEF7BCBE38B506246F
:103B30004FF48065A8B2FEF7B5FE013C4FEA45059B
:103B4000F8D138BD1649D1F8883043F47003C1F874
:103B50008830144B1A6842F001021A605868124A01
:103B600002405A601A6822F0847222F480321A608D
:103B70001A6822F480221A605A6822F4FE025A60FF
:103B8000DA6A22F00F02DA62186B084A02401A63FE
:103B90004FF41F029A604FF000638B60704700BFC4
:103BA00000ED00E0001002400CC07FF8CCFC00FFEC
:103BB000034B2022C3F88421024B9868FDF7BABB5F
:103BC00000E100E0D8060020044B4022C3F8842125
:103BD000034BD86808B1FDF7ADBB704700E100E0CA
:103BE000D8060020044B8022C3F88421034B1869B7
:103BF00008B1FDF79FBB704700E100E0D806002048
:103C00000B490346D1F84C0310B50344EFF3088287
:103C1000934205D9074B0C221A604FF0FF3010BDBC
:103C2000054A064C121B9342F4D2C1F84C33F6E716
:103C300000000020E80C00200030002000040000FC
:103C40004FF0FF3070474FF400534B600020704737
:103C5000012070470020704700207047FEE7034BAB
:103C600016221A604FF0FF30704700BFE80C0020AA
:103C7000012070472DE9F04F8DB007910592002883
:103C800000F0A981441E012C00F2A981B94CDFF893
:103C900000B394F8F954DBF804300693022D40F297
:103CA0000D81B5490220FCF70BFE002800F093813E
:103CB0000BF108070026F5B2032E84F8F95440F002
:103CC0001681AD490220FCF7FBFD002800F083813E
:103CD0000226A949C4F8E8643046FCF7F1FDD4F89F
:103CE000EC84A64901904046FCF7EAFDD4F8F03494
:103CF000A349029307461846FCF7E2FDD4F8F434D2
:103D0000A049039305461846FCF7DAFD9B49049049
:103D10003046FCF7D5FD984981464046FCF7D0FD7A
:103D2000019B06461BB9B9F1000F00F05481B8F1B0
:103D3000FF3F03D017B9002E00F04D81029B0133E5
:103D400002D0002D00F04781039B013303D0049B78
:103D5000002B00F0408101983946FCF7CBFD18B9E3
:103D600031464846FCF7C6FD2946FCF7C3FD0499D9
:103D7000804CFCF7BFFD8246C4F85404002800F0D4
:103D80002A81814A904240F0C18002F55842D168B0
:103D900041F48041D160D16821F48041D1609169C2
:103DA00041F480419161926902F480420B920B9A36
:103DB0002522A4F8F824019B002B00F0EF806E4927
:103DC0000220FEF7ABFB1FB16C494046FEF7A6FB95
:103DD0004FF00008002D00F0F18069490298FEF7CD
:103DE0009DFB4FF48079049B2BB16649039849F4FD
:103DF0000079FEF793FB94F8F924644D94F9F804E4
:103E0000C4F88C840BEB82020C219560C4F86C140E
:103E10004FF416520821C4F85C24C4F87C14002224
:103E20000121C4F858A4C4F86024C4F86424C4F878
:103E30006824C4F87094C4F87424C4F87824A5F5F0
:103E40008B68FCF729FA002F40F0BA80002E40F072
:103E5000B780D4F8D4240AB984F8D0642422C8F8EE
:103E6000D424DAF8002022F00102CAF80020284603
:103E7000FCF726FBFEF708FA01281AD0DAF804202E
:103E800022F49042CAF80420DAF8082022F0220234
:103E9000CAF80820DAF8082042F00802CAF8082018
:103EA000DAF8002042F00102CAF800202846FDF7A7
:103EB000C1FB98F8F954022D00F28D80344A02EBD0
:103EC0008505A86890F8A13002EB83039968CB6F51
:103ED000D1F88040234303F02103212B74D0BDF897
:103EE000142007994FF47A73FDF73AF873E057F806
:103EF000048BB8F1000F07D01F490220FCF7E0FC4B
:103F0000D8F800308342D9D00136D4E6214A904215
:103F100015D102F5E632116941F4003111611169E0
:103F200021F400311161D16941F40031D161D269CC
:103F300002F400320A920A9A4FF4937239E7164A51
:103F400090427FF438AF02F5E432116941F48021E8
:103F50001161116921F480211161D16941F480213D
:103F6000D161D26902F480220992099A40F2272293
:103F70001FE700BF0000002098A70008E0A7000886
:103F800028A800084CA80008003801405804002068
:103F9000D80600200044004000480040B9F1000F5E
:103FA0003FF416AF10490220FEF7B8FA1EB10F49D0
:103FB0004046FEF7B3FA4FF400480BE7A94612E774
:103FC0002846FEF7F9F974E75368069C1B1BB3F506
:103FD0007A7FFFF47CAF05980DB0BDE8F08F0368E1
:103FE0005B689847F7E700BFE0A7000898A70008BC
:103FF00001F0FF01102A2BDB10F0070F08D010F89A
:10400000013B013A8B422DD010F0070F42B3F6D19D
:10401000F0B441EA012141EA014122F007047FF0B6
:1040200000070023F0E80256083C85EA010586EA0D
:10403000010685FA47F5A3FA87F586FA47F6A5FA49
:1040400087F68EB9EED1F0BC01F0FF0102F0070255
:1040500032B110F8013B013A83EA010313B1F8D100
:104060000020704701387047002D06BF35460338E1
:10407000073815F0010F07D1013015F4807F02BF1A
:10408000013015F4C03F0130F0BC0138704700BF6B
:10409000034613F8012B002AFBD1181A0138704788
:1040A00081F0004102E000BF83F0004330B54FEAE9
:1040B00041044FEA430594EA050F08BF90EA020F56
:1040C0001FBF54EA000C55EA020C7FEA645C7FEAE9
:1040D000655C00F0E2804FEA5454D4EB5555B8BF0C
:1040E0006D420CDD2C4480EA020281EA030382EA7D
:1040F000000083EA010180EA020281EA0303362D0F
:1041000088BF30BD11F0004F4FEA01314FF4801CE1
:104110004CEA113102D0404261EB410113F0004FF3
:104120004FEA03334CEA133302D0524263EB4303AA
:1041300094EA050F00F0A780A4F10104D5F1200E48
:104140000DDB02FA0EFC22FA05F2801841F10001A3
:1041500003FA0EF2801843FA05F359410EE0A5F177
:1041600020050EF1200E012A03FA0EFC28BF4CF0A8
:10417000020C43FA05F3C01851EBE37101F000455E
:1041800007D54FF0000EDCF1000C7EEB00006EEB6B
:104190000101B1F5801F1BD3B1F5001F0CD34908F5
:1041A0005FEA30004FEA3C0C04F101044FEA44524C
:1041B00012F5800F80F09A80BCF1004F08BF5FEAD3
:1041C000500C50F1000041EB045141EA050130BDB3
:1041D0005FEA4C0C404141EB0101013C28BFB1F5C5
:1041E000801FE9D291F0000F04BF01460020B1FA10
:1041F00081F308BF2033A3F10B03B3F120020CDAE3
:104200000C3208DD02F1140CC2F10C0201FA0CF0C0
:1042100021FA02F10CE002F11402D8BFC2F1200C25
:1042200001FA02F120FA0CFCDCBF41EA0C019040DB
:10423000E41AA2BF01EB0451294330BD6FEA040424
:104240001F3C1CDA0C340EDC04F11404C4F120020F
:1042500020FA04F001FA02F340EA030021FA04F321
:1042600045EA030130BDC4F10C04C4F1200220FA78
:1042700002F001FA04F340EA0300294630BD21FAB6
:1042800004F0294630BD94F0000F83F4801306BF7C
:1042900081F480110134013D4EE77FEA645C18BF70
:1042A0007FEA655C29D094EA050F08BF90EA020F07
:1042B00005D054EA000C04BF1946104630BD91EAFF
:1042C000030F1EBF0021002030BD5FEA545C05D102
:1042D0004000494128BF41F0004130BD14F5800441
:1042E0003CBF01F5801130BD01F0004545F0FE41B5
:1042F00041F470014FF0000030BD7FEA645C1ABFEA
:10430000194610467FEA655C1CBF0B46024650EA20
:10431000013406BF52EA033591EA030F41F400214C
:1043200030BD00BF90F0000F04BF0021704730B5D2
:104330004FF4806404F132044FF000054FF00001A7
:1043400050E700BF90F0000F04BF0021704730B568
:104350004FF4806404F1320410F0004548BF40423D
:104360004FF000013EE700BF42004FEAE2014FEA92
:1043700031014FEA02701FBF12F07F4393F07F4F6D
:1043800081F06051704732F07F4208BF704793F070
:104390007F4F04BF41F40021704730B54FF4607483
:1043A00001F0004521F000411CE700BF50EA010286
:1043B00008BF704730B54FF000050AE050EA01022F
:1043C00008BF704730B511F0004502D5404261EB9F
:1043D00041014FF4806404F132045FEA915C3FF4E0
:1043E000D8AE4FF003025FEADC0C18BF03325FEA7D
:1043F000DC0C18BF033202EBDC02C2F1200300FA2E
:1044000003FC20FA02F001FA03FE40EA0E0021FA52
:1044100002F11444BDE600BF70B54FF0FF0C4CF440
:10442000E06C1CEA11541DBF1CEA135594EA0C0FF2
:1044300095EA0C0F00F0DEF82C4481EA030621EA2D
:104440004C5123EA4C5350EA013518BF52EA033568
:1044500041F4801143F4801338D0A0FB02CE4FF01A
:104460000005E1FB02E506F00042E0FB03E54FF04A
:104470000006E1FB03569CF0000F18BF4EF0010E42
:10448000A4F1FF04B6F5007F64F5407404D25FEA3E
:104490004E0E6D4146EB060642EAC62141EA5551F1
:1044A0004FEAC52040EA5E504FEACE2EB4F1FD0C33
:1044B00088BFBCF5E06F1ED8BEF1004F08BF5FEAB1
:1044C000500E50F1000041EB045170BD06F0004663
:1044D00046EA010140EA020081EA0301B4EB5C0410
:1044E000C2BFD4EB0C0541EA045170BD41F4801108
:1044F0004FF0000E013C00F3AB8014F1360FDEBF2D
:10450000002001F0004170BDC4F10004203C35DA08
:104510000C341BDC04F11404C4F1200500FA05F38B
:1045200020FA04F001FA05F240EA020001F000422C
:1045300021F0004110EBD37021FA04F642EB0601A2
:104540005EEA430E08BF20EAD37070BDC4F10C04CC
:10455000C4F1200500FA04F320FA05F001FA04F290
:1045600040EA020001F0004110EBD37041F100017C
:104570005EEA430E08BF20EAD37070BDC4F1200587
:1045800000FA05F24EEA020E20FA04F301FA05F2EF
:1045900043EA020321FA04F001F0004121FA04F297
:1045A00020EA020000EBD3705EEA430E08BF20EA67
:1045B000D37070BD94F0000F0FD101F000464000A1
:1045C00041EB010111F4801F08BF013CF7D041EA23
:1045D000060195F0000F18BF704703F00046520027
:1045E00043EB030313F4801F08BF013DF7D043EAF8
:1045F0000603704794EA0C0F0CEA135518BF95EAAE
:104600000C0F0CD050EA410618BF52EA4306D1D134
:1046100081EA030101F000414FF0000070BD50EA53
:10462000410606BF1046194652EA430619D094EADD
:104630000C0F02D150EA013613D195EA0C0F05D1C7
:1046400052EA03361CBF104619460AD181EA03011B
:1046500001F0004141F0FE4141F470014FF00000D3
:1046600070BD41F0FE4141F4780170BD70B54FF06E
:10467000FF0C4CF4E06C1CEA11541DBF1CEA1355EE
:1046800094EA0C0F95EA0C0F00F0A7F8A4EB0504D0
:1046900081EA030E52EA03354FEA013100F08880C7
:1046A0004FEA03334FF0805545EA131343EA126390
:1046B0004FEA022245EA111545EA10654FEA002645
:1046C0000EF000419D4208BF964244F1FD0404F5FE
:1046D000407402D25B084FEA3202B61A65EB03055A
:1046E0005B084FEA32024FF480104FF4002CB6EB17
:1046F000020E75EB030E22BFB61A754640EA0C0097
:104700005B084FEA3202B6EB020E75EB030E22BFD6
:10471000B61A754640EA5C005B084FEA3202B6EB17
:10472000020E75EB030E22BFB61A754640EA9C00D6
:104730005B084FEA3202B6EB020E75EB030E22BFA6
:10474000B61A754640EADC0055EA060E18D04FEA64
:10475000051545EA16754FEA06164FEAC30343EA04
:1047600052734FEAC2025FEA1C1CC0D111F4801FD1
:104770000BD141EA00014FF000004FF0004CB6E7CA
:1047800011F4801F04BF01430020B4F1FD0C88BF69
:10479000BCF5E06F3FF6AFAEB5EB030C04BFB6EB74
:1047A000020C5FEA500C50F1000041EB045170BD67
:1047B0000EF0004E4EEA113114EB5C04C2BFD4EB94
:1047C0000C0541EA045170BD41F480114FF0000E18
:1047D000013C90E645EA060E8DE60CEA135594EA94
:1047E0000C0F08BF95EA0C0F3FF43BAF94EA0C0F97
:1047F0000AD150EA01347FF434AF95EA0C0F7FF40C
:1048000025AF104619462CE795EA0C0F06D152EA5F
:1048100003353FF4FDAE1046194622E750EA410643
:1048200018BF52EA43067FF4C5AE50EA41047FF454
:104830000DAF52EA43057FF4EBAE12E74FF0FF3CB9
:1048400006E000BF4FF0010C02E000BF4FF0010C8A
:104850004DF804CD4FEA410C7FEA6C5C4FEA430C03
:1048600018BF7FEA6C5C1BD001B050EA410C0CBF52
:1048700052EA430C91EA030F02BF90EA020F0020B4
:10488000704710F1000F91EA030F58BF994208BF1B
:1048900090422CBFD8176FEAE37040F001007047D8
:1048A0004FEA410C7FEA6C5C02D150EA013C07D12F
:1048B0004FEA430C7FEA6C5CD6D152EA033CD3D07A
:1048C0005DF8040B704700BF8446104662468C4674
:1048D0001946634600E000BF01B5FFF7B7FF0028A7
:1048E00048BF10F1000F01BD4DF808EDFFF7F4FFD0
:1048F0000CBF012000205DF808FB00BF4DF808ED5B
:10490000FFF7EAFF34BF012000205DF808FB00BF7D
:104910004DF808EDFFF7E0FF94BF012000205DF89F
:1049200008FB00BF4DF808EDFFF7CEFF94BF012054
:1049300000205DF808FB00BF4DF808EDFFF7C4FF4D
:1049400034BF012000205DF808FB00BF4FEA410C96
:104950007FEA6C5C02D150EA013C0AD14FEA430C79
:104960007FEA6C5C02D152EA033C02D14FF00000B6
:1049700070474FF0010070474A0011D212F5001243
:1049800011D20DD56FF47873B3EB62520ED44FEAA7
:10499000C12343F0004343EA505323FA02F0704727
:1049A0004FF00000704750EA013002D14FF0FF3065
:1049B00070474FF0000070474FEA4102B2F1E04308
:1049C00024BFB3F5001CDCF1FE5C0DD901F0004CF6
:1049D0004FEAC0024CEA5070B2F1004F40EB830046
:1049E00008BF20F00100704711F0804F21D113F172
:1049F0003872BCBF01F00040704741F480114FEAAB
:104A00005252C2F11802C2F1200C10FA0CF320FA33
:104A100002F018BF40F001004FEAC1234FEAD32350
:104A200003FA0CFC40EA0C0023FA02F34FEA4303BA
:104A3000CCE77FEA625307D150EA01331EBF4FF043
:104A4000FE4040F44000704701F0004040F0FE405E
:104A500040F40000704700BF10B5054C237833B90F
:104A6000044B13B10448AFF300800123237010BD41
:104A7000900B0020000000007CA1000808B5034B4B
:104A80001BB103490348AFF3008008BD00000000DC
:104A9000940B00207CA100080023C0E90033C0E98A
:104AA00002337047B94BBA4AD968F0B521F4E061D6
:104AB0000904090CB74C0A4385B0DA60E26942F098
:104AC0008052E261E26902F080520392039AA26985
:104AD00042F00102A261A26902F001020292029A6E
:104AE000626942F040026261626902F04002019232
:104AF000019AD3F8FC20D7015EBFD3F8FC2042F026
:104B00008072C3F8FC20A44B00225A601A6842F05D
:104B100001021A6000BF00BF00BF5B68FCF704FE23
:104B2000636813F00C0F09D0636803F00C03082BC3
:104B300040F0E7806368DE0300F1E38023682368C8
:104B4000F822102192FAA2F2B2FA82F223F0F803CC
:104B500001FA02F213432360636803F00C03082B8D
:104B600000F0FD804FF0807393FAA3F3B3FA83F360
:104B700003F1845303F584139B0000221A60874AD3
:104B800057684FF00073012593FAA3F3B3FA83F645
:104B9000002B0CBF19463146206805FA01F101428D
:104BA00040F0D180636823F4741343F460136360AE
:104BB0004FF0807393FAA3F3B3FA83F303F18453B2
:104BC00003F584139B000120186057684FF00073B1
:104BD00093FAA3F3B3FA83F6002B0CBF19463146C0
:104BE000256800FA01F1294200F0B3806C4A13688D
:104BF00013F0060F00F0BD80636823F0F0036360DC
:104C000021684FF0007393FAA3F3002B40F0D0809B
:104C1000012202FA03F30B4200F0B78063685F4A97
:104C200023F0030343F002036360516841F28830CC
:104C3000636803F00C03082B40F0BD80584A1368EA
:104C400003F00703022B00F2BC806368554D23F488
:104C5000E06343F480636360636823F460536360DC
:104C6000FBF70AFC6368F02203F0F00392FAA2F269
:104C7000B2FA82F2D3404C4A134493F8C035D8407C
:104C8000C5F82003D5F82403FCF726FD236B43F079
:104C900010032363E36A23F4F87343F48073E3623D
:104CA00095F86D3303F0FF020BB985F86C230223EE
:104CB00085F86D3395F85433002B40F08F80D5F88C
:104CC00050333A4A5A619A6822F018029A6095F86D
:104CD0005523002A40F0A7804FF0FF321A619A68EE
:104CE000D5F8641322F060020A439A609A68D5F8F6
:104CF000681322F080020A439A60012385F86D331D
:104D00007FE0012393FAA3F3B3FA83F303F184530F
:104D100003F584139B002148012119604768022391
:104D200093FAA3F3B3FA83F6002B0CBF1A4632466C
:104D3000256801FA02F22A427FF401AF4268D21BD1
:104D4000022AF1D9FEE75168C91B02297FF620AF7C
:104D5000F8E75168C91B02297FF63EAFF2E76368A6
:104D6000DD03EFD403F47013B3F5601F3FF43EAFDF
:104D7000E8E7136823F0070343F0020313601368A6
:104D800003F00703022B3FF437AFFEE700ED00E02E
:104D90000003FA0500100240001000E0D8060020D1
:104DA000002002400000002098A10008B71DC104A7
:104DB000B3FA83F32CE753685B1A83427FF638AF6C
:104DC000E3E7136823F0070343F00203136013685B
:104DD00003F00703022B3FF438AFD6E7D5F858238A
:104DE000D0070ED51E2322FA03F1C90701D4013BD7
:104DF000F9D2D5F85C13102911D004D839B108299B
:104E00000FD005B0F0BD1829FBD1062BF9D8D5F885
:104E100050335A619A6822F018020A4356E7072B6A
:104E2000F4E70F2BF2E7D5F8602357E72DE9804828
:104E30009FB0C64EC64C00AFAFF30080FCF774FCC9
:104E40000A20FBF7CDF9736943F40033736173698A
:104E500003F400333B610C223B690223C7E90E23B4
:104E60000025072307F138014FF09040BB64C7E9E4
:104E70001055FBF743FAB749C4F874524FF4E133C5
:104E8000C4E999130C23C4E99B55C4E99E35C4F8C1
:104E90008052F36943F40033F361F36903F40033A0
:104EA000FB6004F51970FB68FDF786FAAA48FCF769
:104EB000DDFC0A20FBF794F994F8383083B9636C71
:104EC000A64918469B46FBF7FBFCA5490546A06C86
:104ED000FBF7F6FC854200F0B780002800F0F7866B
:104EE000A048FCF7FFFFA048FCF7C0FC9F4BC4F8AC
:104EF000FC300126002518463246294684F8E15048
:104F0000A4F80061FDF716FB0A20FBF769F9984841
:104F1000FCF7ACFC94F804013146FDF77BFD934BA4
:104F2000C4F8FC3032461846294684F8E150A4F80B
:104F30000061FDF7FFFA8D4BC4F80C31A4F8106145
:104F4000FBF782FF2946AB20FDF784FCFBF77CFFD3
:104F5000B4F80631002B40F04B8101210846FDF7E3
:104F600079FC0020FBF75CFFFBF76EFF8148FCF744
:104F70007DFC814B07F11802E84603F1080C164648
:104F800018685968154603C5083363452A46F7D1A2
:104F900018681B792B71012128602020FDF75AFC2D
:104FA0000020FBF73DFF0120FBF73AFF0020FBF755
:104FB00037FFFBF749FF01210220FDF74BFC0020E2
:104FC000FBF72EFF0120FBF72BFF0020FBF728FF4C
:104FD0000D25013D16F8010BADB2FBF721FF002DA9
:104FE000F7D1FBF731FF29460B2087F82850C7F887
:104FF0002950C7F82D50C7F83150FDF72BFC284633
:10500000FBF70EFF0120FBF70BFF2846FBF708FF1D
:105010002846FBF705FF07F128060020FBF700FFF5
:105020000135ADB20D2D06F8010BF6D1FBF70CFFE3
:105030005248FCF71BFC07F12800FCF717FC50480E
:10504000FCF714FCC546EDE0002D3FF449AF4D4B95
:105050009D4200D0FEE7D4F8103303B1FEE7A5650A
:10506000256B494BC4F810334FF0010A84F838A07F
:105070008DBB606BB4F82E8070B9182000FB08F06F
:1050800003F076FCC14603460821B9F101091A462E
:1050900003F118037AD26063A4F82480B4F82C805A
:1050A000A0621820002500FB08F02584658403F029
:1050B0005FFCC146034608214FF0010CB9F101091C
:1050C0001A4603F118037AD20023A3822063E06119
:1050D000A4F81880E38221495846FBF7FDFB00F451
:1050E000FE4141F012015846FDF790F9A56C6B1C8A
:1050F00007D01B492846FBF7EFFB01462846FDF782
:1051000085F9F36943F00073F361F36903F0007309
:10511000D4E913127B6114207B69FBF7BDF81420DE
:10512000FBF79AF8D4E913121320FBF7B5F8132014
:10513000FBF792F80123C4F88030E06B002384F879
:10514000733084F84030FCF7CDFEC9E60010024011
:10515000D8060020004400408BAA000868A7000879
:1051600080A7000820A107009AAA000800093D00B6
:10517000A6AA0008B2AA00084BAB0008D1AA0008F2
:10518000FBAA0008006400402C07002043F8185CCC
:1051900023F8145C03F8125C03F8115C03F8105C4C
:1051A00003F80F5C03F80E5C03F80D1CC2E903550D
:1051B00003F8045C03F803AC03F8025C65E743F80A
:1051C000185C23F8145C03F8125C03F8115C03F814
:1051D000105C03F80F5C03F80E5C03F80D1CC2E9C9
:1051E000035503F8045C03F803CC03F8025C65E79D
:1051F000FDF710FB9F20FBF713FE2846FBF710FE80
:1052000006022846FBF70CFEB6B240EA0605FBF79D
:105210001BFEB4F80631ADB2AB423FF49EAED848A7
:10522000FCF724FB01234FF4007007F13801C7E9B4
:105230000E0300264FF090404FF008084FF0100981
:10524000C7E91066FBF75AF80223BB634FF090459D
:10525000FBF754F8C7F83880FBF750F8C7F83890D8
:10526000FBF74CF83146C620FDF7D4FBC548FCF7E8
:10527000FDFAC5F818906420FAF7B2FFC5F8289037
:105280006420C5F81880FAF7ABFF0223C5F8288020
:105290006420AB61FAF7A4FF0223AB62BA4BBB6296
:1052A000BA4B7B6307F12801B94B3B63C620FE6212
:1052B000FCF756FA07F12800FCF74CFAB54DB64852
:1052C000FCF7D4FA0623B548C5F84833C5F840338F
:1052D000FCF7CCFA6368C4F850334FF07D0A4FF006
:1052E000180B94F84933FBB103210020FBF72CFF86
:1052F000AB48FBF73BFF94F84A3394F822614F2BFD
:1053000000F0048200F2CA81202B00F04E83442B6F
:1053100000F0DF8194F82221A24907F1380003F060
:105320001DFE002384F849336668B6FBFAF606F0E2
:10533000010316F0010684F8553340F09B8394F87E
:105340005633002B00F09683D4F8502363689B1AE1
:1053500047F22F52934200F29480636840F6C412E1
:10536000B3FBF2F303F00108D90784F8578340F147
:10537000868094F85833002B40F0818094F81A31DD
:10538000DFF82892D5F8202384F81E6143F0080343
:1053900084F81A31042384F81D31402384F81F3126
:1053A000142384F82031542384F821317E4BB2FB3E
:1053B000F3F34CF25032D9F804107B605A43D9F819
:1053C00004305B1A9A42FADC002194F81401FBF7CE
:1053D00093FB94F81501FBF78FFB0320FBF75EFEB0
:1053E0007A68D9F80410DFF8C49141F2941353435A
:1053F000D9F80420521A9342FADC03203B60FBF7F1
:105400004DFED9F804103B68D9F80420521A934293
:10541000FADC0320FBF742FE7B68D9F80410DFF8C2
:105420008C9196225A43D9F804305B1A9A42FADCDE
:105430000220FBF733FE94F81A0140F02000FBF73E
:1054400071FE04230C2084F81B31FBF76BFE012056
:10545000FBF768FE7968D9F804204FF4FA635943E2
:10546000084652494B689B1A9842FBDC02230620EF
:1054700084F81C31FBF756FE2078FBF78DFE84F88C
:105480005883002398465FFA88F10720FBF75CFEFB
:105490004748FBF76BFE43460133042B9846F2D195
:1054A00094F822317B6003F0030949460720FBF79B
:1054B0004BFEFA226368B3FBF2F3DA0794F80C832D
:1054C00000F18882B8F1000F40F082823948FBF782
:1054D0004DFE49460820FBF737FEB8F1000F00F0FB
:1054E0009D827868227863680D2148430146A02098
:1054F00000FB02110431FA22B3FBF2F3DB0729446B
:1055000000F16F820846FBF731FE94F8543384F8BB
:105510005983002B00F0AA82D5EDDD7A2649BDEE35
:10552000E77A07F13800F8EEC76A17EE102A77EE2F
:10553000E67AF2EE046A67EEA67AFDEEE77A17EEF7
:10554000903A03F00BFD03211120FBF7FDFD07F15D
:105550003800FBF70BFEDFED197A95EDDD8A68EE7A
:10556000277A4FF47A72FDEEE77A17EE903A93FBC2
:10557000F2F102FB1133002B40F0958320E000BFD5
:10558000C3AA0008DFAA00084D2E0008BD010008CC
:10559000C101000800000020EEAA0008FEAA0008D1
:1055A000220A002033AB000840420F00001000E048
:1055B00017AB000819AB0008B3AB000800007A4431
:1055C0004FF090434FF40078C3F818801E20FAF78C
:1055D00007FEB5EE408AF1EE10FA40F03D82AA20B7
:1055E000FAF7FEFD4FF09043C3F8288095F8B833E2
:1055F000D5F8BC1383F00103002B85F8B8330CBF3A
:1056000000230323032219444FF0000807F1280068
:1056100084F8548303F0D1FC0321112087F82B80F8
:10562000FBF792FD07F12800FBF7A0FD95EDE40ADA
:10563000B5F89403FCF7B7F995F8B833B5F8BA03A1
:1056400000EE103AB8EE400AFCF7ADF9D5EDE47A79
:10565000FCEEE77A17EE900AFAF7C2FD95F8B83338
:10566000D5F8BC1383F00103002B18BF03260322D7
:10567000314407F1280085F8B83303F09EFC03217C
:10568000112087F82B80FBF75FFD07F12800FBF75F
:105690006DFD07F12800FCF7F7F8E1E1552B7FF4E9
:1056A00039AE94F80C3386B1002B40F01883013EDC
:1056B000F6B2032E84F8226140F013832078FBF7C2
:1056C0006BFD27E60B2E00F00F83002B3FF422AE7C
:1056D0000DE3FAF75DFD0138864294F80C330EDADB
:1056E0006BB90136F6B2042E84F82261E6D0082E9A
:1056F00007D00C2E05D0002B3FF40CAE03E0042E97
:10570000F5D1002BDAD04FF0FF30F1E22378984644
:1057100033B9701CC0B2FBF73FFD84F82281F9E574
:105720000EB93046CBE7022B1DD0042B00F00381CD
:10573000012B7FF4EFAD022E08D9032E7FF4EAADE2
:10574000BE4BC5F8743384F85483E3E594F80C3306
:105750000133DBB284F80C33032B7FF6DBAD00237F
:1057600084F80C33D6E5013E042E3FF6D3ADDFE8D6
:1057700006F003216591B90094F80C33D5F8AC1309
:105780000133DBB2032B28BF00230026032207F1DD
:10579000380084F80C3385F8A86303F00EFC87F812
:1057A0003B6002211120FBF7CFFC07F13800FBF72B
:1057B000DDFCAFE595F8A833B5F8AA0383F0010343
:1057C00007EE903AB8EE670A85F8A833FCF7EBF8D5
:1057D00095F8A833D5F8AC13002B0CBF0023032396
:1057E0001944032207F1380003F0E7FB00260221E9
:1057F000112087F83B60FBF7A7FC07F13800FBF7A7
:10580000B5FC07F13800FCF73FF895F8A8338C4950
:1058100003EB430303EB431307EE903AF8EEE77A0A
:1058200007F13800C5EDE77AFDEEE77A17EE902A2A
:1058300003F094FB87F83C600121B3E795F8B0339F
:10584000B5F8B20383F0010307EE903AB8EE670AA9
:1058500085F8B033FCF7A7F895F8B033D5F8B41352
:10586000002B0CBF002303231944032207F1380047
:1058700003F0A3FB002387F83B3003211120FBF743
:1058800063FC07F13800FBF771FC07F13800FBF708
:10589000FBFF3FE595F8B8339FED6A0AB5F894032E
:1058A00083F0010385F8B833FCF77DF895F8B83339
:1058B000B5F8BA0300EE103AB8EE400AFCF773F8F8
:1058C00095F8B833D5F8BC13002B0CBF0023032385
:1058D0001944032207F1380003F06FFB002187F819
:1058E0003B10CBE795F8C0339FED560AB5F814048A
:1058F00083F0010385F8C033FCF755F895F8C03301
:10590000B5F8C20300EE103AB8EE400AFCF74BF8C7
:10591000D5F8C41395F8C033002B0CBF0023032324
:105920001944032207F1380003F047FB002387F8EE
:105930003B300121A2E7043E072E3FF6EBAC01A36A
:1059400053F826F0655900086559000865590008A4
:105950001553000875590008855900084D5700086F
:105960004D57000894F80C330133DBB284F80C3344
:10597000062BF2E694F80C330133DBB284F80C33D7
:10598000022BEAE695F81C34B5F81E0483F00103F7
:1059900007EE903AB8EE670A85F81C34FCF703F876
:1059A000D5F8201495F81C34B6E72378012B7FF442
:1059B000B1AC032E7FF4AEAC204BC5F8743311208C
:1059C0000023314684F85433FBF7BEFB1E48EEE655
:1059D0001E487CE5B8F1000F01D11D4877E51D4850
:1059E00075E507F1380003F0FBFA002307F13800F2
:1059F000194610F8012B62B1303A092A0CD801314E
:105A0000414509D107F1080270331344202203F8FD
:105A1000402C07F1380076E50133EAE794F8593372
:105A2000002B3FF472AD786823780D225043A022FA
:105A300002FB03000430284465E500BF000040403D
:105A40000CAB00080000000013AB00081BAB000803
:105A500017AB00081DAB00084FF09043C3F8288037
:105A6000F5EE007A38EE678A85EDDD8A4FF09043D7
:105A700008229A62A26D94F8553384F85633002AAE
:105A800000F00381536923F002035361A18AE38A82
:105A900089B29BB2994200F00D81E18AE36989B233
:105AA0000BFB0133944903F1180C8E4618685968B2
:105AB000764603C608336345B646F7D1E38A218BA1
:105AC0009BB20133B3FBF1F001FB10339BB2E382D5
:105AD0000121536943F002035361002900F0D5808E
